:100000000C9422050C94F9110C943F050C947C057A
:100010000C943F050C943F050C943F050C943F0550
:100020000C943F050C943F050C943F050C943F0540
:100030000C943F050C943F050C943F050C943F0530
:100040000C943F050C943F050C94F4050C94220687
:100050000C943F050C9441050C943F050C943F050E
:100060000C943F050C943F05036EDB363D9A99993D
:10007000993DABAAAA2A3E000000803F084AD73B20
:100080003BCE016E84BCBFFDC12F3D6C74319ABD67
:1000900056833DDA3D00C77F11BED9E4BB4C3E918B
:1000A0006BAAAABE000000803F072C7AA5BA6CC5D7
:1000B00090DA3B9365FC8BBC53F810FD3C56928361
:1000C0004DBD879D3AB63DCBC9BF5BBE73DA0FC944
:1000D0003F0001B202FFFF0190040923A135016A2C
:1000E000020600016008000000000000000000603F
:1000F00004400000000162020000006004004000B3
:1001000000037B034CCD6C03AB03365676006804CA
:1001100002CB47A202180400058BC1010C040000A9
:100120000000037F060CC92C979797038903264686
:1001300066006C022000024004000000000244043B
:100140000000000002480400000000024C0400000F
:1001500000000250040000000002540400000000EF
:1001600002580400000000025C040000000002BC11
:10017000040000000001EC0400004000037F060CB6
:10018000C92C9797970402030D355D040904872D48
:10019000353D00A3010000000001078601FE074174
:1001A00005F120283038077E01300746019A0747BD
:1001B00004F1283038076C04F128303802160200A8
:1001C00009FB00003E000B003600010002000300A6
:1001D0000000650054FFEF0000FA80000B1282005F
:1001E000010002000000000000000000000000000C
:1001F0000000280000FFFF4581FFFFFA72000000A9
:1002000000000003E80000000100017FFFFFFE8006
:1002100001001B00000000000000000000000000C2
:1002200000003E03304000000002CAE3093E8000A7
:1002300000200000000000000040000000600000FE
:100240000041FF000000000B2A00001655000021AD
:1002500082FD872650FD800000001F000000058001
:100260000000000000000100000002000000030088
:1002700000400000000000046F0002653200005ED4
:10028000C04000000000000000000000000000006E
:1002900000FB8C6F5DFD5D08D9007C733B006C1228
:1002A000CC3200139D3200D0D6320008004000014D
:1002B000F4FFE68079020000000000D0D60000279D
:1002C00010FB0000004000000000000000000000E3
:1002D000000000000100000000000001000100001B
:1002E000000000FA36FFBC308E0005FBF0FFD95B42
:1002F000C8FFD09ABE000010A9FFF41EB200CEBB0A
:10030000F7000000010000000400020002020000EB
:100310000CFFC280000001800000CF800040000080
:1003200000000000010000000000000600000000C6
:1003300014000000000000000000000000000000A9
:1003400000000000000000000000000000000000AD
:10035000000000000000000000000000000000009D
:100360000000000000033F68B6793528BCC67ED186
:100370006C80000000400000000000B26A00000035
:1003800000000000000000000000003FF00000003E
:10039000300000000000000000000000000000002D
:1003A000000000000000000000000000000000004D
:1003B000000000254D002F706D000005AE000C02FE
:1003C000D00000000000650054FFEF0000000000B6
:1003D00000000001000044000000000C00000001CB
:1003E00000000000000065000000540000FFEF0066
:1003F00000000000000000000000000000000000FD
:1004000000400000000000000000000000000000AC
:10041000004000000000000000000000000000009C
:1004200000000000010000000200000000000000C9
:1004300000000000000000000000000000000000BC
:1004400000000000000000000000000000000000AC
:1004500000001B0000000000000000000000000081
:10046000000000000000000000000000000000008C
:10047000000000000000000000000000004000003C
:1004800000001B0000000000000000000000000051
:10049000000000000000000000000000000000005C
:1004A000000000000000000000000000000000004C
:1004B000000000000000000000000000000000003C
:1004C00000D8DCBAA2F1DEB2B8B4A88191F74A90A4
:1004D0007F916AF3F9DBA8F9B0BAA080F2CE81F37C
:1004E000C2F1C1F2C3F3CCA2B280F1C6D880BAA7E0
:1004F000DFDFDFF2A7C3CBC5B6F087A29424487034
:100500003C95406834589B78A2F183922D557DD854
:10051000B1B4B8A1D09180F270F370F27C80A8F1F0
:1005200001B09887D943D886C988BAA1F20EB89786
:1005300080F1A9DFDFDFAADFDFDFF2AAC5CDC7A91F
:100540000CC92C97979797F1A989264666B0B4BA3B
:1005500080ACDEF2CAF1B28C02A9B69800890E1600
:100560001EB8A9B4992C547CB08AA896365676F158
:10057000B9AFB4B083C0B8A89711B18F98B9AFF034
:10058000240844106418F1A329557DAF83B593AFB7
:10059000F0002850F1A3869F61A6DADEDFD9FAA326
:1005A0008696DB31A6D9F8DFBAA68FC2C5C7B28C52
:1005B000C1B8A2DFDFDFA3DFDFDFD8D8F1B8A8B290
:1005C00086B4980D355DB8AA98B0872D353DB2B682
:1005D000BAAF8C96198F9FA70E161EB49AB8AA8729
:1005E0002C547CB9A3DEDFDFA3B180F2C4CDC9F106
:1005F000B8A9B499830D355D89B9A32D557DB593FF
:10060000A30E161EA92C547CB8B4B0F19783A81180
:1006100084A50998A383F0DA240844106418D8F15B
:10062000A529557DA58595021A2E3A565A4048F9B6
:10063000F3A3D9F8F098832408441064189782A88B
:10064000F111F098A2240844106418DAF3DED8837C
:10065000A59401D9A302F1A2C3C5C7D8F18492A27F
:100660004DDA2AD84869D92AD86855DA32D8507173
:10067000D932D8705DDA3AD85879D93AD87893A374
:100680004DDA2AD84869D92AD86855DA32D8507153
:10069000D932D8705DDA3AD85879D93AD878A88A58
:1006A0009AF02850789EF38818F19F1D98A8D908D1
:1006B000D8C89F129EF315A8DA1210D8F1AFC897C8
:1006C0008734B5B994A421F3D922D8F22DF3D92ACD
:1006D000D8F235F3D932D881A4606061D961D86C81
:1006E0006869D969D8747071D971D8B1A384193D7A
:1006F0005DA3831A3E5E931030811011B8B0AF8FA6
:1007000094F2DA3ED8B49AA88729DAF8D8879A35CD
:10071000DAF8D8879A3DDAF8D8B1B9A49885022ECC
:1007200056A581000C14A397B08AF12DD928D84D75
:10073000D948D86DD968D8B1840DDA0ED8A32983E9
:10074000DA2C0ED8A3844983DA2C4C0ED8B8B0A882
:100750008A9AF520AADADFD8A840AAD0DADED8A88B
:1007600060AADAD0DFD8F19786A8319B069907AB4B
:100770009728889BF00C201440B8B0B4A88C9CF04B
:10078000042851791D301438B282ABD0982C5050C7
:1007900078789BF11AB0F08A9CA82951798B29515D
:1007A000798A2470598B2058718A4469388B394072
:1007B000688A6448318B304960A5882009715844A3
:1007C00068113964493019F1AC002C547CF08CA8C4
:1007D00004285078F1889726A85998AC8C022646B0
:1007E00066F0899CA8295179247059446938644875
:1007F00031A98809205970AB11384069A8193148CE
:10080000608CA83C415C207C00F187981986A86E1A
:10081000767EA999882D557D9EB9A38A228A6E8AF3
:10082000568A5E9FB183062646660E2E4E6E9DB892
:10083000AD002C547CF2B18CB499B9A32D557D81B7
:1008400091AC38AD3AB58391AC2DD928D84DD94863
:10085000D86DD968D88C9DAE29D904AED851D904A9
:10086000AED879D904D881F39DAD008DAE1981AD94
:10087000D901D8F2AEDA26D88E912983A7D9ADADA9
:10088000ADADF32AD8D8F1B0AC89913E5E76F3AC29
:100890002E2EF1B18C5A9CAC2C2828289CAC3018F8
:1008A000A8988128343C9724A728343C9C24F2B093
:1008B00089AC912C4C6C8A9B2DD9D8D851D9D8D8D9
:1008C00079D9D8D8F19E88A331DAD8D8912DD928F2
:1008D000D84DD948D86DD968D8B18393353D802596
:1008E000DAD8D88569DAD8D8B49381A328343CF310
:1008F000AB8BF8A391B609B4D9ABDEFAB0879CB93B
:10090000A3DDF1A3A3A3A395F1A3A3A39DF1A3A3A7
:10091000A3A3F2A3B49080F2A3A3A3A3A3A3A3A32E
:10092000A3A3B2A3A3A3A3A3A3B087B599F1A3A341
:10093000A398F1A3A3A3A397A3A3A3A3F39BA3A308
:10094000DCB9A7F1262626D8D8FF00407A10F35A42
:1009500000A0724E18090010A5D4E80000E87648FF
:10096000170000E40B54020000CA9A3B000000E1AB
:10097000F505000080969800000040420F0000003E
:10098000A08601000000102700000000E80300001E
:1009900000006400000000000A00000000000100E8
:1009A000000000002C76D888DC674F0823DFC1DF09
:1009B000AE59E1B1B796E5E3E453C63AE65199760C
:1009C00096E8E6C28426EB898C9B62ED407C6FFC46
:1009D000EFBC9C9F40F2BAA56FA5F490055A2AF788
:1009E0005C936B6CF9676DC11BFCE0E40D47FEF591
:1009F00020E6B500D0ED902E0300943577050080F9
:100A0000841E080000204E0A000000C80C33333357
:100A1000330F986E12831141EF8D2114893BE655F7
:100A200016CFFEE6DB18D1844B381BF77C1D901DDA
:100A3000A4BBE424203284725E228100C9F124EC3C
:100A4000A1E53D2711241FBECFEFD8E0DEBFCDBF0B
:100A500012E0A0E0B1E0EEEAF7E402C005900D92EA
:100A6000AC3FB107D9F723E0ACEFB2E001C01D9273
:100A7000A63BB207E1F70E9455170C94D5230C94BE
:100A800000001F920F920FB60F9211248F939F9325
:100A900080917C008F708130B9F068F08230E9F08D
:100AA000833019F5809178009091790090936303D9
:100AB000809362031AC0809178009091790090939E
:100AC0005D0380935C0311C0809178009091790060
:100AD00090935F0380935E0308C0809178009091AB
:100AE000790090936103809360039F918F910F90A1
:100AF0000FBE0F901F9018951F920F920FB60F9276
:100B000011248F939F938091FC02882321F0809180
:100B1000FC02815001C082E08093FC0283B190E02E
:100B200090935B0380935A039F918F910F900FBE18
:100B30000F901F90189584B1807F84B984B1866F1F
:100B400084B9579A85B18F6085B9E8E6F0E0808175
:100B500081608083EBE6F0E08081816080838CE0BF
:100B60000E9461070E94530C83ED90E30197F1F717
:100B700000C000000E94B90D0E94AD0D80E480937A
:100B80007C008BEC80937A00789410925B03109237
:100B90005A0384EF91E090935D0380935C039093FC
:100BA0005F0380935E03909361038093600390934F
:100BB00063038093620310926403109265031092A2
:100BC00066031092670310926803109269031092F3
:100BD0006A0310926B0310926C0310926D031092D3
:100BE0006E0310926F0308951F920F920FB60F922B
:100BF00011242F938F939F93EF93FF938091C000C5
:100C00009091C6008871E091FF02EF5FEF71209133
:100C1000FE02E21739F0E093FF02F0E0EE5FFC4FD6
:100C2000908301C082E09091FD02982B9093FD0289
:100C3000FF91EF919F918F912F910F900FBE0F9089
:100C40001F9018951F920F920FB60F9211248F9339
:100C50009F93EF93FF939091010380910003981766
:100C600069F0E0910003EF5FEF71E0930003F0E0C3
:100C7000EE5DFC4F80818093C60005C08091C1006D
:100C80008F7D8093C100FF91EF919F918F910F9085
:100C90000FBE0F901F901895109201031092000341
:100CA0001092FF021092FE0297FF04C022E02093F0
:100CB000C0009F779093C5008093C40088E980931B
:100CC000C10086E08093C20008959091FF02809158
:100CD000FE02981781F0E091FE02EF5FEF71E09362
:100CE000FE02F0E0EE5FFC4F80819091FD021092D9
:100CF000FD0290E0089580E091E008959091010355
:100D00009F5F9F71209100039217E1F3E92FF0E0BC
:100D1000EE5DFC4F8083909301038091C10080625F
:100D20008093C1000895CF93DF93EC0189918823CC
:100D300019F00E947E06FACFDF91CF910895CF93EC
:100D4000DF93FC018491EF012196882321F00E941A
:100D50007E06FE01F7CFDF91CF9108955E9A00C025
:100D60005E9808951F93CF93DF931F92CDB7DEB7A0
:100D7000662311F05C9A01C05C985D989AB19F60FF
:100D80009AB91BB1107F982F92959F70912B9BB9A8
:100D900089830E94AE0689818F70812B8BB90E9456
:100DA000AE061F601BB90F90DF91CF911F91089580
:100DB0005C985D9A8AB1807F8AB95E9A00C089B1D9
:100DC0005E9800C05E9A00C099B19F708295807F46
:100DD0005E98892B0895CF93DF93C0E6DAEE0E94E8
:100DE000D80687FF04C0209711F02197F8CF00C0E4
:100DF000CD2B21F0DF91CF910C94D8068FEFDF91AE
:100E0000CF910895CF93C82F0E94EB0660E08C2FFE
:100E1000CF910C94B206CF93C82F0E94EB0661E0ED
:100E20008C2FCF910C94B206611102C0805801C082
:100E300080540C9402070E94EB0690E0089581E034
:100E40000C94020782E00C940207CF93C82F0E94F3
:100E5000EB06CA3049F4803410F480E401C080E02D
:100E60008058CF910C940207803119F460E080EC37
:100E700004C0803521F460E080E80E94B2060E9440
:100E8000EB0661E08C2FCF910C94B206CF93DF93E9
:100E9000EC018991882319F00E942507FACFDF9190
:100EA000CF910895CF93DF93FC018491EF012196B8
:100EB000882321F00E942507FE01F7CFDF91CF9113
:100EC0000895CF93C82F9AB19F679AB9E0EAFFE0DF
:100ED0003197F1F7599A589A0E94AE06E0EEF4E085
:100EE0003197F1F70E94AE06E0E1F0E03197F1F7BB
:100EF0000E94AE06E0E1F0E03197F1F758980E94C9
:100F0000AE06E0E1F0E03197F1F788E20E940207D7
:100F10000E94EB068F3F69F088E00E9402070E9462
:100F20001F0786E00E9402078C2F0E94020780E0C4
:100F300001C08FEFCF9108951092B90080E28093A5
:100F4000B800089594EA9093BC004FEF50E060E041
:100F500070E09091BC0097FD06C0415051096109B5
:100F60007109B8F706C0452B462B472B11F481E0D9
:100F700008959091B900987F983011F09031B9F7A9
:100F80008093BB0084E88093BC008FEF90E0A0E0EA
:100F9000B0E02091BC0027FD05C00197A109B1096F
:100FA000C0F704C0892B8A2B8B2B09F38091B900E1
:100FB000887F883111F08034D1F680E0089544EACA
:100FC00054E864E94093BC0020E030E09091BC001C
:100FD00097FD06C02F5F3F4F211591E03907B1F70C
:100FE0009091B900987F983011F0903159F7809323
:100FF000BB005093BC0020E030E09091BC0097FD16
:1010000006C02F5F3F4F211591E03907B1F790914E
:10101000B900987F903211F0983579F46093BC0054
:1010200020E030E09091BC0094FFCCCF2F5F3F4F89
:10103000211591E03907B1F7C5CF08950C94A207A7
:1010400084E98093BC0080E090E02091BC0024FF04
:1010500005C00196811521E09207B9F708958093A4
:10106000BB0084E88093BC008FEF90E0A0E0B0E08C
:101070002091BC0027FD05C00197A109B109C0F767
:1010800004C0892B8A2B8B2B41F09091B900987F5B
:1010900081E0983219F480E0089581E0089584ECAD
:1010A0008093BC008FEF90E0A0E0B0E02091BC0006
:1010B00027FD05C00197A109B109C0F704C0892B1C
:1010C0008A2B8B2B19F08091BB00089580E0089546
:1010D00084E88093BC008FEF90E0A0E0B0E0209126
:1010E000BC0027FD05C00197A109B109C0F704C0E4
:1010F000892B8A2B8B2B19F08091BB00089580E0FF
:101100000895AF92BF92DF92EF92FF920F931F93D9
:10111000CF93DF9300D0CDB7DEB7182FD62E80ED5A
:1011200049835A830E94A207812F0E942F088AE1D7
:101130008A95F1F700C081ED0E94A2074981A42E93
:101140005A81B52E00E010E0ED2CF12CE1E0EE1A12
:10115000F1080D1580F40E151F0519F40E9468089A
:1011600002C00E944F08F50180830F5F1F4FFFEF01
:10117000AF1ABF0AEECF0E9420088D2D0F900F905E
:10118000DF91CF911F910F91FF90EF90DF90BF9073
:10119000AF900895EF92FF920F931F93CF93DF9339
:1011A00000D0CDB7DEB7082F162F80ED49835A83C4
:1011B0000E94A207802F0E942F084981042FE42E4D
:1011C0005A81F52E8E2D801B811730F4F701819105
:1011D0007F010E942F08F6CF0F900F90DF91CF91E3
:1011E0001F910F91FF90EF900C94200861110C94C7
:1011F000810880E00895AB0161E00C9481086111E1
:101200000C94CA080895CF93DF931F92CDB7DEB731
:101210006983AE014F5F5F4F61E00E94CA080F9083
:10122000DF91CF9108950F931F93CF93DF9300D059
:101230001F92CDB7DEB7182F062F1982BE016F5F40
:101240007F4F2B834A830E94FB082B814A8188238E
:1012500009F1602F70E0641B71096F5F7F4FE1E05F
:10126000F0E002C0EE0FFF1F4A95E2F73197062E1D
:1012700001C0EE0F0A94EAF701C0220F6A95EAF75F
:101280006E2F609589816823E2236E2B6983812FFD
:101290000E9403090F900F900F90DF91CF911F9143
:1012A0000F910895FF920F931F93CF93DF9300D078
:1012B000CDB7DEB7F62E8901442339F1BE016F5F49
:1012C0007F4F4A830E94FB084A818823F9F06F2DE3
:1012D00070E0641B71096F5F7F4FE1E0F0E002C0D6
:1012E000EE0FFF1F4A95E2F73197062E01C0EE0F71
:1012F0000A94EAF749814E2350E002C0559547957C
:101300006A95E2F7F801408301C080E00F900F90EA
:10131000DF91CF911F910F91FF900895FF920F934E
:101320001F93CF93DF931F92CDB7DEB7F62E8A01BE
:10133000BE016F5F7F4F0E94FB0821E030E001C0DB
:10134000220FFA94EAF799819223F80190830F9083
:10135000DF91CF911F910F91FF90089541110C944F
:10136000130908950F931F93CF93DF9300D0CDB748
:10137000DEB7182F062FBE016F5F7F4F4A830E9492
:10138000FB0889814A8121E030E0002E01C0220F54
:101390000A94EAF7442319F0682F622B03C0622FE6
:1013A000609568236983812F0E9403090F900F9035
:1013B000DF91CF911F910F910895EF92FF920F93BC
:1013C0001F93CF93DF93D82FC62F8A01662361F135
:1013D00080ED0E94A2078D2F0E942F08D0E0CC0F35
:1013E000DD1FF12CEF2DF0E0EC17FD07ACF4EE243F
:1013F000E394EF0CEE0FFF1FE00FF11F81810E94BD
:101400002F08F801EE0DF11DEE0DF11D80810E94F7
:101410002F08F394F394E6CFDF91CF911F910F91B2
:10142000FF90EF900C942008DF91CF911F910F91C6
:10143000FF90EF9008958F71411180626111806477
:10144000682F8DE60C940309682F8EE60C9403092F
:101450009F92AF92BF92CF92DF92EF92FF920F9343
:101460001F93CF93DF937C018B01A42EB22E642FA8
:101470006F718DE60E9403098B2D0E94240AC0E043
:10148000D0E0C12CDD24D394C017D10768F5CE017C
:1014900040960817190718F4902E9C1A02C020E1F4
:1014A000922EA92DB0E0F601EB19F109EA17FB071E
:1014B00014F49B2C9194A7014C0F5D1F692D8FE6AE
:1014C0000E94F608C90DD11DB90CC017D107E0F66E
:1014D000B11001C0A3946A2D6F718DE60E940309BB
:1014E0008B2D0E94240AD0CFDF91CF911F910F91B5
:1014F000FF90EF90DF90CF90BF90AF909F900895B6
:101500002F923F925F926F927F928F929F92AF92B3
:10151000BF92CF92DF92EF92FF920F931F93CF93E0
:10152000DF933C015B01242E122F642F6F718DE637
:101530000E940309812F0E94240A002331F080E1D8
:1015400090E00E94721C6C0102C0C12CD12CEE20D4
:1015500039F080E190E00E94721CF82E392E02C012
:10156000F12C312CC0E0D0E0CA15DB0508F066C0D4
:10157000CE014096A816B90618F45A2C5C1A02C07F
:1015800040E1542E452D50E080E091E0811B91090F
:101590008417950714F4512E5194F301EC0FFD1F9D
:1015A000EE2059F08F2DAF2DB32D9A2F981B951546
:1015B00030F494919D933196F8CFFE2E3F2E4F2D0F
:1015C000532D652D8FE60E94FF08852C912C00235A
:1015D00011F1C114D104F9F0622D6F718DE60E94F2
:1015E0000309812F0E94240AA601652D8FE60E941F
:1015F000F608A401B6018F2D932D0E94631E892B3E
:1016000051F0C6010E940A1DEE2021F18F2D932D6D
:101610000E940A1D1FC0C80DD91D150DCA15DB0576
:1016200008F0A2CF111101C02394622D6F718DE6D5
:101630000E940309812F0E94240A96CF002319F0EB
:10164000C6010E940A1DEE2039F08F2D932D0E94B5
:101650000A1D02C080E001C081E0DF91CF911F919F
:101660000F91FF90EF90DF90CF90BF90AF909F9041
:101670008F907F906F905F903F902F9008952F9262
:101680003F925F926F927F928F929F92AF92BF92A2
:10169000CF92DF92EF92FF920F931F93CF93DF933E
:1016A00000D0CDB7DEB71C014B01642E442339F0C6
:1016B00088E090E00E94721C782E592E02C0712C96
:1016C000512C00E010E00815190508F044C0F101A4
:1016D000E00FF11FC80103966C016620A1F0449150
:1016E000F8013196E20DF31D2491F8013296E20DD6
:1016F000F31DA490A1103AC00C5F1F4FF101E80F39
:10170000F91F84910BC040812181A280F101E80F73
:10171000F91FA1100AC00C5F1F4F80818130A1F416
:1017200062E388E30E940309CECF7E2E5F2EB12CA8
:10173000E12C01E0B501872D952D0E94800A8501DD
:101740000C0D1D1D8111BFCF662061F0872D952DD9
:101750000E940A1D07C0662039F0872D952D0E9432
:101760000A1D02C080E025C081E023C0EA2CF12CD4
:10177000F2E0FA1558F4B701872D952D2A83498395
:101780000E94991D782E592E49812A81072D152DE9
:10179000A0E0B0E0C1018C0D9D1DAE15BF0538F66F
:1017A000FC01EA0FFB1F3491F80131938F01119670
:1017B000F4CF0F900F90DF91CF911F910F91FF9079
:1017C000EF90DF90CF90BF90AF909F908F907F90E1
:1017D0006F905F903F902F90089546E453E062E051
:1017E00082E70E94F608209146038091470390E02B
:1017F000922B0895AC0184E70C94F60866E473E03C
:101800008AE30E94FB0880914603089541E062E06C
:101810008AE60C94B20926E433E046E066E080E014
:101820000E945209809146030895282F46E066E001
:1018300080E00C94130926E433E046E066E081E0A2
:101840000E945209809146030895282F46E066E0E1
:1018500081E00C94130926E433E046E066E082E080
:101860000E945209809146030895282F46E066E0C1
:1018700082E00C94130940E066E08BE60C94B20918
:1018800041E066E08BE60C94B20926E433E046E0E2
:1018900066E085E70E9452099091460381E0943307
:1018A00009F080E008950E949C072AE12A95F1F74B
:1018B00000C08FEF90E722E0815090402040E1F798
:1018C00000C000000E943B0C8FE19EE40197F1F7FD
:1018D00000C0000021E043E062E08BE60E941309B3
:1018E00023E043E062E08AE10E94130964E089E1B9
:1018F0000E94030923E042E064E08BE10E941309A7
:1019000020E042E064E08CE10C9413098F929F92F6
:10191000AF92BF92CF92DF92EF92FF920F931F93FD
:10192000CF93DF93EC015B016A01490146E453E088
:101930006EE08BE30E94F6082091460380914703F6
:1019400090E0922B998388832091480380914903EA
:1019500090E0922BF5019183808320914A0380913E
:101960004B0390E0922BF6019183808320914E03EC
:1019700080914F0390E0922BF4019183808320911A
:1019800050038091510390E0922BF8019183808362
:10199000209152038091530390E0922BF7019183A1
:1019A0008083DF91CF911F910F91FF90EF90DF9097
:1019B000CF90BF90AF909F908F9008952F923F92BD
:1019C0004F925F926F927F928F929F92AF92BF924F
:1019D000CF92DF92EF92FF920F931F93CF93DF93FB
:1019E000CDB7DEB72C970FB6F894DEBF0FBECDBFD4
:1019F0003C014B015A016901280117011C861B8615
:101A00001A86198618861F821E821D821C821B82DE
:101A10001A821982CE0101967C018E010D5F1F4F43
:101A20009E012B5F3F4FAE01495F5F4FBE01675F75
:101A30007F4F0A960E94860C6B857C85882777FDF0
:101A40008095982F0E94B01A20E030E040E858E3DB
:101A50000E94941BF3016083718382839383698561
:101A60007A85882777FD8095982F0E94B01A20E00C
:101A700030E040E858E30E94941BF40160837183D6
:101A8000828393836F817885882777FD8095982F4F
:101A90000E94B01A20E030E040E858E30E94941B16
:101AA000F50160837183828393836D817E81665D9E
:101AB0007F4F882777FD8095982F0E94B01A23E3E7
:101AC00033E343E851E40E94461AF60160837183D0
:101AD000828393836B817C8169507109882777FDAC
:101AE0008095982F0E94B01A23E333E343E851E432
:101AF0000E94461AF2016083718382839383698115
:101B00007A81635E7F4F882777FD8095982F0E94AA
:101B1000B01A23E333E343E851E40E94461AF1018B
:101B200060837183828393832C960FB6F894DEBF13
:101B30000FBECDBFDF91CF911F910F91FF90EF901E
:101B4000DF90CF90BF90AF909F908F907F906F90DD
:101B50005F904F903F902F900895E89A41E067E0A2
:101B60008AE60C94B209E89840E067E08AE60C94B3
:101B7000B209CF92DF92EF920F931F93CF93DF932F
:101B8000CDB7DEB7C059D1090FB6F894DEBF0FBE8E
:101B9000CDBF8091690083608093690041E067E078
:101BA0008BE60E94B2098FE59AEE0197F1F700C02B
:101BB00000000E943B0C40E060E080E00E941B0AB5
:101BC0000E940B0CD82E0E941B0C182F0E942B0C6D
:101BD0006FE785E20E94030940E065E08AE60E9423
:101BE000B20968E685E20E94030941E061E08AE605
:101BF0000E94B2098FE39CE90197F1F700C0000051
:101C0000EE24E39401E020E040E069E877E081EC35
:101C100091E00E94800A813009F002C241E060EC4C
:101C200070E081E091E00E943F0B882309F4FAC143
:101C300023E043E062E08BE60E94AE0962E188E3C4
:101C40000E94030964E089E10E94030921E043E066
:101C500065E08AE10E94AE0923E043E062E08AE1A8
:101C60000E94AE0923E042E064E08BE10E94AE09ED
:101C700063E080E70E94030960E081E70E940309B6
:101C800040E060E080E00E94B2098D2D0E94150CBA
:101C9000812F0E94250C8AE50E94350C40E050E01F
:101CA00061E083E10E94DD0940E050E061E085E110
:101CB0000E94DD0940E050E061E087E10E94DD091B
:101CC000C12CD12CF601EE52FF4FE491A1E8B0E017
:101CD000AC0FBD1FAC0DB11DEC9381E08C0D9FEFDF
:101CE000C91AD90A93E09C1568F7CD57DF4F688170
:101CF000C358D04070E09B012E5F3F4F90E0281703
:101D0000390704F7E12C01E0CE57DF4F2881C25894
:101D1000D040CF57DF4F4881C158D04081E890E094
:101D20008C0F9D1F03960E94800A40E0F601EE5240
:101D3000FF4FE491A1E8B0E0AC0FBD1FA40FB11DAF
:101D4000EC934F5F8FEFC81AD80A443078F3CD5721
:101D5000DF4F6881C358D04070E09B012E5F3F4F3A
:101D6000842F90E0281739070CF7E12C01E0CE57BB
:101D7000DF4F2881C258D040CF57DF4F4881C1582C
:101D8000D04081E890E08C0F9D1F03960E94800A4E
:101D900021E041E062E08AE60E94AE090E94ED0B7C
:101DA000AE014F5F5F4F682F84E70E94F60862E044
:101DB0008FE10E9403096CE981E20E94030960E55A
:101DC00080E20E94030960E082E20E94030941E090
:101DD00062E08AE60E94B20941E066E08AE60E947B
:101DE000B2090E94AD0D41E063E08AE60E94B209AB
:101DF0000E94ED0B182F8330D8F340E0F601EE522D
:101E0000FF4FE491A1E8B0E0AC0FBD1FA40FB11DDE
:101E1000EC934F5F9FEFC91AD90A443078F3CD573E
:101E2000DF4F6881C358D04070E09B012E5F3F4F69
:101E3000842F90E0281739070CF7E12C01E0CE57EA
:101E4000DF4F2881C258D040CF57DF4F4881C1585B
:101E5000D04081E890E08C0F9D1F03960E94800A7D
:101E600040E0F601EE52FF4FE491A1E8B0E0AC0F84
:101E7000BD1FA40FB11DEC934F5F8FEFC81AD80A96
:101E8000443078F3CD57DF4F6881C358D04070E0BD
:101E90009B012E5F3F4F842F90E0281739070CF7E6
:101EA000E12C01E0CE57DF4F2881C258D040CF57F8
:101EB000DF4F4881C158D04081E890E08C0F9D1FD2
:101EC00003960E94800A80E0F601EE52FF4FE491F3
:101ED000A1E8B0E0AC0FBD1FA80FB11DEC938F5F60
:101EE0009FEFC91AD90A843078F3CD57DF4F688144
:101EF000C358D04070E0AB014E5F5F4F282F30E0F9
:101F0000421753070CF7E12C01E0CE57DF4F288131
:101F1000C258D040CF57DF4F4881C158D04081E8E8
:101F200090E08C0F9D1F03960E94800A612FCE01C6
:101F300001960E94FA0B40E0F601EE52FF4FE49149
:101F4000A1E8B0E0AC0FBD1FA40FB11DEC934F5F33
:101F50008FEFC81AD80A443078F3CD57DF4F688125
:101F6000C358D04070E09B012E5F3F4F842F90E01C
:101F7000281739070CF7CE57DF4F2881C258D040B9
:101F8000CF57DF4F4881C158D04081E890E08C0F97
:101F90009D1F03960E94280A0E94ED0B8330E0F3F8
:101FA000682FCE0101960E94FA0BF601EE52FF4F08
:101FB00040E08491A1E8B0E0AC0FBD1FA40FB11DBB
:101FC0008C934F5F443010F43196F3CFCD57DF4FF1
:101FD0006881C358D04070E09B012E5F3F4F842F33
:101FE00090E02817390784F7E12C01E0CE57DF4F46
:101FF0002881C258D040CF57DF4F4881C158D040C8
:1020000081E890E08C0F9D1F03960E94800A0E9439
:10201000B30D41E062E08AE60E94B20980E003C0AD
:1020200081E001C082E0C057DF4F0FB6F894DEBFF9
:102030000FBECDBFDF91CF911F910F91EF90DF9039
:10204000CF900895AF92BF92CF92DF92EF92FF921E
:102050000F931F93CF93DF93EC015B016A0179012A
:10206000009721F4C0917003D0917103688170E0F2
:10207000762F66278981680F711D882777FD8095E7
:10208000982F0E94B01A20E030E040E858E30E9408
:10209000941BF50160837183828393836C8170E06C
:1020A000762F66278D81680F711D882777FD8095B3
:1020B000982F0E94B01A20E030E040E858E30E94D8
:1020C000941BF6016083718382839383688570E03B
:1020D000762F66278985680F711D882777FD809583
:1020E000982F0E94B01A20E030E040E858E30E94A8
:1020F000941BF70160837183828393836C8570E006
:10210000762F66278D85680F711D882777FD80954E
:10211000982F0E94B01A20E030E040E858E30E9477
:10212000941BF8016083718382839383DF91CF9145
:102130001F910F91FF90EF90DF90CF90BF90AF90E5
:1021400008954F925F926F927F928F929F92AF927B
:10215000BF92CF92DF92EF92FF920F931F93CF9394
:10216000DF93CDB7DEB768970FB6F894DEBF0FBE2A
:10217000CDBF2B013C0129833A834B835C83ED82E5
:10218000FE820F8318879B01AC010E946919698741
:102190007A878B879C87A30192010E94941B6D878D
:1021A0007E878F87988B29813A814B815C81CA0118
:1021B000B9010E9469192B013C0129813A814B81A7
:1021C0005C810E94941B9B01AC016D857E858F858F
:1021D00098890E94691920E030E040E85FE30E949E
:1021E0006819698B7A8B8B8B9C8B2D813E814F81FB
:1021F0005885C301B2010E94941B6D8B7E8B8F8B1F
:10220000988FA601950169857A858B859C850E94AA
:10221000941B9B01AC016D897E898F89988D0E94EA
:10222000681929893A894B895C890E94F319EDA5BF
:10223000FEA56083718382839383A6019501C30108
:10224000B2010E94941B2B013C012D813E814F81E4
:10225000588569857A858B859C850E94941B9B0196
:10226000AC01C301B2010E9469190E94CD19DC01C1
:10227000CB01B058EBA5FCA580839183A283B383E7
:10228000A6019501C601B5010E946919A601950133
:102290000E94941B9B01AC016D857E858F8598897A
:1022A0000E94691920E030E040E85FE30E9468196D
:1022B0006D877E878F87988B2D813E814F815885D2
:1022C000CA01B9010E946919A60195010E94941BD7
:1022D0002B013C0129813A814B815C8169857A859A
:1022E0008B859C850E94941B9B01AC01C301B201AC
:1022F0000E9468192D853E854F8558890E94F319E3
:10230000F401608371838283938368960FB6F89497
:10231000DEBF0FBECDBFDF91CF911F910F91FF9018
:10232000EF90DF90CF90BF90AF909F908F907F9075
:102330006F905F904F900895CF92DF92EF92FF924F
:102340000F931F93CF93DF93EC017B016A01890107
:10235000809143039091440320914503211103C0D0
:102360008A329105C8F3109245030E94FE0B8093B8
:1023700042030E94ED0B909344038093430320910A
:10238000420324FD03C08115944019F40E94060CF9
:1023900026C021FF24C080914303909144038A9773
:1023A00038F40E94ED0B9093440380934303F3CFE2
:1023B0006AE282E793E00E94FA0BE0914303F09116
:1023C0004403BA97F0934403E09343039601A701B3
:1023D000BE0182E793E00E94221081E001C080E00C
:1023E000DF91CF911F910F91FF90EF90DF90CF90F1
:1023F00008951F920F920FB60F9211248F9381E0D0
:10240000809345038F910F900FBE0F901F901895EA
:1024100029988F710E948B158FEF0E948B15299A36
:102420000895EF92FF920F931F93CF93DF9300D005
:10243000CDB7DEB7142F29988F7169837A830E94F4
:102440008B156981062FE62E7A81F72E8E2D801B43
:10245000811738F48FEF0E948B15F70181937F016C
:10246000F5CF299A0F900F90DF91CF911F910F9187
:10247000FF90EF900895CF93DF931F92CDB7DEB713
:1024800029988F71806269830E948B156981862FDC
:102490000E948B15299A0F90DF91CF910895EF92AA
:1024A000FF920F931F93CF93DF9300D0CDB7DEB78A
:1024B000142F29988F71806269837A830E948B150B
:1024C0006981062FE62E7A81F72E8E2D801B8117CB
:1024D00030F4F70181917F010E948B15F6CF299A84
:1024E0000F900F90DF91CF911F910F91FF90EF9080
:1024F000089520E030E00496FB01E20FF31FDC01B9
:10250000A21BB30B4C9140832F5F3F4F2530310509
:1025100099F70895CF93DF9300D000D01F92CDB7E5
:10252000DEB7282FCB01211113C025E0FB01AEE15E
:10253000B1E001900D922A95E1F7BE016F5F7F4FE8
:102540000E94791245E0BE016F5F7F4F8AE014C0A0
:102550002130A9F425E0FB01A9E1B1E001900D9241
:102560002A95E1F7BE016F5F7F4F0E94791245E027
:10257000BE016F5F7F4F8BE00E944F1238C0223048
:1025800061F425E0FB01A4E1B1E001900D922A95F0
:10259000E1F7FB0164818CE028C0233061F425E081
:1025A000FB01AFE0B1E001900D922A95E1F7FB014C
:1025B00064818DE01AC0243061F425E0FB01AAE0BB
:1025C000B1E001900D922A95E1F7FB0164818EE064
:1025D0000CC0253061F4FB01A5E0B1E001900D9243
:1025E0002A95E1F7FB0164818FE00E943B120F9076
:1025F0000F900F900F900F90DF91CF910895CF9390
:10260000DF9300D000D01F92CDB7DEB725E0FC01EC
:10261000A0E0B1E001900D922A95E1F7BE016F5F55
:102620007F4F0E94791245E0BE016F5F7F4F8AE0C5
:102630000E944F1245E0BE016F5F7F4F80E10E9414
:102640004F120F900F900F900F900F90DF91CF913E
:102650000895299882EE0E948B15299A0895299849
:1026600081EE0E948B15299A08956EE171E080E059
:102670000E948A1280E00E940812682F616080E048
:102680000E943B1280E00E940812682F626080E086
:102690000E943B1260E787E00E943B120E942913D0
:1026A0000E942F13289A8BE291E00197F1F700C066
:1026B00000000895289880E00E940812682F6E7F1D
:1026C00080E00E943B1280E00E940812682F626046
:1026D00080E00E943B1260E787E00E943B120E946C
:1026E0002F138BE291E00197F1F700C000000895ED
:1026F00029988FEF0E948B15299A0895EF92FF92E7
:102700000F931F93CF93DF93CDB7DEB7C456D10994
:102710000FB6F894DEBF0FBECDBF7C0185E892E016
:10272000F70109950E9478131F928F938CE892E02D
:102730009F938F938E010F5F1F4F1F930F930E94E4
:102740009E1EC801F701099580E00E9408121F92A1
:102750008F938BE992E09F938F931F930F930E9427
:102760009E1EC801F701099585E00E9408121F927C
:102770008F938AEA92E09F938F931F930F930E9407
:102780009E1EC801F701099586E00E9408121F925B
:102790008F9388EB92E09F938F931F930F930E94E8
:1027A0009E1EC801F701099581E00E9408121F9240
:1027B0008F9389EC92E09F938F931F930F930E94C6
:1027C0009E1EC801F701099582E00E9408121F921F
:1027D0008F9387ED92E09F938F931F930F930E94A7
:1027E0009E1E0FB6F894DEBF0FBECDBFC801F70125
:1027F000099588E00E9408121F928F9389EE92E05B
:102800009F938F931F930F930E949E1EC801F70101
:10281000099584ED92E0F70109950F900F900F90C4
:102820000F900F900F90CC59DF4F0FB6F894DEBF8A
:102830000FBECDBFDF91CF911F910F91FF90EF9011
:102840000895CF93DF93EC010E947813982F807442
:1028500096FF05C0209719F0969597709883DF91A1
:10286000CF910895EF92FF921F93CF93DF931F9222
:10287000CDB7DEB7182F299881E699830E948B1572
:10288000E12E9981F92E10E28FEF0E948B15F7014E
:1028900081937F011150C1F7299A60E487E00E947B
:1028A0003B120E94781385FF0AC060E287E00F9018
:1028B000DF91CF911F91FF90EF900C943B120F90FE
:1028C000DF91CF911F91FF90EF900895EF92FF92CB
:1028D0001F93CF93DF931F92CDB7DEB7182F998345
:1028E0000E945A13299880EA0E948B15E12E998143
:1028F000F92E10E2F70181917F010E948B15115092
:10290000C9F7299A289AF8E2FA95F1F728988AE106
:102910008A95F1F700C00E9478138073C1F30E947A
:102920007813182F6CE485E00E943B1280E00E942F
:102930000812682F6D7F80E00E943B120E943513C1
:1029400015FB882780F90F90DF91CF911F91FF90A1
:10295000EF90089586E00E940812682F666086E076
:102960000C943B1286E00E940812682F677D86E077
:102970000C943B1280E00E940812682F6C6080E08B
:102980000C943B12219A209A0E9480152898299A2B
:102990008FE097E20197F1F700C000000E94AA14AF
:1029A0000E94B2140E94BA1467E484E00E943B12B1
:1029B00060E08CE10E943B126CE485E00E943B12D7
:1029C00060E281E10E943B1260E282E10E943B12E0
:1029D00060E283E10E943B1260E284E10E943B12CC
:1029E00060E285E10E943B1260E286E10E943B12B8
:1029F00060E082E00E943B1282E00E940812682F91
:102A0000616082E00E943B1282E00E940812682FFF
:102A1000626082E00E943B1282E00E940812682FEE
:102A2000646082E00E943B1282E00E940812682FDC
:102A3000686082E00E943B1282E00E940812682FC8
:102A4000606182E00E943B1282E00E940812682FBF
:102A5000606282E00E943B1281E00E940812682FAF
:102A6000616081E00E943B1281E00E940812682FA1
:102A7000626081E00E943B1281E00E940812682F90
:102A8000646081E00E943B1281E00E940812682F7E
:102A9000686081E00E943B1281E00E940812682F6A
:102AA000606181E00E943B1281E00E940812682F61
:102AB000606281E00E943B126EE171E080E00E9462
:102AC0008A1269E171E081E00E948A1264E171E09A
:102AD00082E00E948A126FE071E083E00E948A1215
:102AE0006AE071E084E00E948A1265E071E085E0AE
:102AF0000E948A1280E091E00E94FF120C9435132C
:102B000084B1837C84B984B18C6284B981E58CBD45
:102B100081E08DBD08958EBD0DB407FEFDCF8EB54D
:102B20000895FC019F012F5F3F4FE081F0E0E659DF
:102B3000FE4F4081403410F4F901F4CF281B390BCB
:102B4000C901029697FD03969C0135952795359509
:102B50002795C901880F991F820F931F0196089529
:102B60000F931F93CF93DF93FB01DB01BD016F5FD9
:102B70007F4FAC91B0E0A659BE4F2C91203410F499
:102B8000DB01F4CF6E1B7F0B9B0121503109AB01A0
:102B90004E5F5F4F57FF02C04D5F5F4FBA017595A3
:102BA000679575956795AB01440F551F460F571FE5
:102BB0008C01D80125303105F4F1A081B0E0A6598F
:102BC000BE4F8C9164E0869FC0011124A181B0E0CA
:102BD000A659BE4F9C9192959F70982BD8019C93BB
:102BE000A181B0E0A659BE4F8C91B0E18B9FC0018E
:102BF0001124A281B0E0A659BE4F9C91969596955E
:102C0000982BE8019983A281B0E0A659BE4F8C9120
:102C1000D0E48D9FC0011124A381B0E0A659BE4F1E
:102C20009C91982BD80112969C933496245031098C
:102C30000D5F1F4FBECF223031050CF447C080819D
:102C400090E086599E4FEC016881D4E06D9FB00101
:102C50001124818190E086599E4FEC0188818295F4
:102C60008F70862B8C932230310511F411962EC073
:102C7000818190E086599E4FEC016881D0E16D9F83
:102C8000B0011124828190E086599E4FEC01888129
:102C900086958695862B11968C9311972430310555
:102CA00011F0129613C01396828190E086599E4FC0
:102CB000EC018881D0E48D9FC0011124E381F0E014
:102CC000E659FE4F9081982BF80192831C92319522
:102CD0002195310923703327CA01821B930BDF91A1
:102CE000CF911F910F910895029663E070E00E94CA
:102CF0004019660F771F660F771FCB010196089565
:102D00008F929F92AF92BF92CF92DF92EF92FF92FB
:102D10000F931F93CF93DF93FC018B014B0122E0B4
:102D2000820E911C20E030E05A01A2E0AA1AB108FC
:102D3000DF012A153B050CF055C0D801CC91C69592
:102D4000C695AC2FBB27A7FDB095A75DBE4FAC9134
:102D5000A083D401CE917D01AC2FBB27A7FDB095F8
:102D6000A07FBB27C4E0B595A795CA95E1F7E80118
:102D7000C880DC2DD370C0E1DC9F60011124AC2938
:102D8000BD29A75DBE4FAC91A183E701A881AF70BB
:102D9000D4E0AD9FD0011124E401E880FF24E7FCDA
:102DA000F094D0ECED22FF24D6E0F594E794DA9588
:102DB000E1F7AE29BF29A75DBE4FAC91A283E40124
:102DC000A881AF73BB27A7FDB095A75DBE4FAC919F
:102DD000A3832D5F3F4F34960D5F1F4FD3E08D0EC1
:102DE000911CA6CF241735070CF04CC0EB01C20F85
:102DF000D31FA881A695A695BB27A7FDB095A75D73
:102E0000BE4FAC91A08341505109F8808F010D5FF6
:102E10001F4F2417350761F4AF2DA37020E1A29F47
:102E2000D0011124A75DBE4F2C9121832DE324C036
:102E3000E9012196C60FD71FA881BB27A7FDB09532
:102E4000A07FBB2724E0B595A7952A95E1F72F2D04
:102E5000237040E1249F90011124A22BB32BA75D86
:102E6000BE4F2C912183A881AF70C4E0AC9FD001EC
:102E70001124A75DBE4F2C912283D80111962DE31A
:102E8000F8012083FD0111929F01281B390BC90114
:102E9000DF91CF911F910F91FF90EF90DF90CF9036
:102EA000BF90AF909F908F900895CF93DF93CDB751
:102EB000DEB76C970FB6F894DEBF0FBECDBF80E0D3
:102EC00090E0A0E8BFE3898F9A8FAB8FBC8F1D8AFB
:102ED0001E8A1F8A188E198A1A8A1B8A1C8A1D86C6
:102EE0001E861F86188A19861A861B861C861D82D6
:102EF0001E821F82188619821A821B821C8286E11A
:102F000090E00E9474160E949B05CE0101963C0140
:102F10002E0195E0490E511C84E0382E92E0292EB6
:102F20009E01235F3F4FAE014F5E5F4FBE016B5E60
:102F30007F4FCE0149960E949C118823E9F0AD8411
:102F4000BE84CF84D888E988FA880B891C892D89AA
:102F50003E894F89588D698D7A8D8B8D9C8D7F929E
:102F60006F925F924F92FE0139964F010E94A1101D
:102F70000F900F900F900F9083EC99E00197F1F76D
:102F800000C0000089859A85AB85BC858093640369
:102F900090936503A0936603B09367038D819E8130
:102FA000AF81B8858093680390936903A0936A0307
:102FB000B0936B0389819A81AB81BC8180936C0350
:102FC00090936D03A0936E03B0936F0380917C0088
:102FD000807F80937C0080917C0080937C00809136
:102FE0007A00806480937A0080917A0086FDFCCF1D
:102FF00080917C00807F80937C0080917C00816048
:1030000080937C0080917A00806480937A00809124
:103010007A0086FDFCCF80917C00807F80937C00CD
:1030200080917C00826080937C0080917A00806433
:1030300080937A0080917A0086FDFCCF80917C009D
:10304000807F80937C0080917C00836080937C00F3
:1030500080917A00806480937A0080917A0086FD66
:10306000FCCF80915C0390915D038935924050F0D4
:1030700080915E0390915F038039914018F485B18F
:10308000822522C080915E0390915F038935924032
:1030900058F080915C0390915D038039914020F459
:1030A0008BB180588BB927C080915C0390915D03F0
:1030B0008935924058F080915E0390915F03893585
:1030C000924020F085B1832585B915C080915C03BD
:1030D00090915D038039914050F480915E0390910E
:1030E0005F038039914018F485B18058EDCF85B1E8
:1030F000897785B95F988091FC02882309F445C0DF
:103100000E941F0760E080E00E9414078AE692E0B8
:103110000E94460760E088E00E9414078DE692E076
:103120000E94460761E080E00E94140780E792E079
:103130000E94460760E082E00E94140769857A8554
:103140008B859C8506E413E022E043E00E94511C3D
:103150000E94460760E08AE00E9414076D817E812C
:103160008F81988522E043E00E94511C0E9446070F
:1031700061E082E00E94140769817A818B819C81E1
:1031800022E043E00E94511C78C00E941F0783E7A1
:1031900092E00E94460761E080E00E94140786E703
:1031A00092E00E94460760E088E00E94140789E7E9
:1031B00092E00E94460761E088E00E9414078CE7D5
:1031C00092E00E94460760E083E00E9414078FE7C8
:1031D00092E00E94460760E083E00E94140780911D
:1031E0006003909161034AE066E473E00E94791EF7
:1031F0000E94460761E083E00E9414078FE792E097
:103200000E94460761E083E00E94140780916203F8
:10321000909163034AE066E473E00E94791E0E9485
:10322000460760E08BE00E9414078FE792E00E945F
:10323000460760E08BE00E94140780915E03909146
:103240005F034AE066E473E00E94791E0E9446072D
:1032500061E08BE00E9414078FE792E00E9446072E
:1032600061E08BE00E94140780915C0390915D0304
:103270004AE066E473E00E94791E0E94460750CE41
:1032800097FB072E16F4009407D077FD09D00E9413
:10329000541907FC05D03EF4909581959F4F0895F1
:1032A000709561957F4F0895AA1BBB1B51E107C024
:1032B000AA1FBB1FA617B70710F0A61BB70B881FC6
:1032C000991F5A95A9F780959095BC01CD01089555
:1032D0005058BB27AA270ED0E6C1D7D130F0DCD199
:1032E00020F031F49F3F11F41EF496C10EF4E095E6
:1032F000E7FB8CC1E92FE8D180F3BA1762077307A7
:103300008407950718F071F49EF500C20EF4E0955D
:103310000B2EBA2FA02D0B01B90190010C01CA018F
:10332000A0011124FF27591B99F0593F50F4503E3A
:1033300068F11A16F040A22F232F342F4427585F2C
:10334000F3CF469537952795A795F0405395C9F744
:103350007EF41F16BA0B620B730B840BBAF09150FC
:10336000A1F0FF0FBB1F661F771F881FC2F70EC09B
:10337000BA0F621F731F841F48F48795779567956E
:10338000B795F7959E3F08F0B3CF9395880F08F057
:103390009927EE0F9795879508959F939F77EEE372
:1033A00089379E0720F4E8E6F0E05ED109C013D12A
:1033B0009058A2EA2AED3FE049EC5FE39BDF73D12E
:1033C0000F9007FC9058089560D158F080E891E084
:1033D00009F49EEF61D128F040E851E059F45EEF26
:1033E00009C01AC193C1E92FE0786ED168F3092EA4
:1033F000052AC1F3261737074807590738F00E2E5C
:1034000007F8E02569F0E025E0640AC0EF6307F8FB
:10341000009407FADB01B9019D01DC01CA01AD018D
:10342000EF9343D040D10AD05F91552331F02BED7B
:103430003FE049E450FD49EC4CCF0895DF93DD2790
:10344000B92FBF7740E85FE31616170648075B07FA
:1034500010F4D92F62D19F938F937F936F9309D2EA
:10346000ECE7F0E0DCD01FD12F913F914F915F91BD
:1034700067D1DD2349F09058A2EA2AED3FE049ECFC
:103480005FE3D0785D2736DFDF910DC10CD00BC133
:1034900003D140F0FAD030F021F45F3F19F0B6C00C
:1034A000511135C1B9C010D198F39923C9F35523EF
:1034B000B1F3951B550BBB27AA2762177307840727
:1034C00038F09F5F5F4F220F331F441FAA1FA9F3DD
:1034D00033D00E2E3AF0E0E830D091505040E695CF
:1034E000001CCAF729D0FE2F27D0660F771F881F30
:1034F000BB1F261737074807AB07B0E809F0BB0B1F
:10350000802DBF01FF2793585F4F2AF09E3F510542
:1035100068F07CC0FCC05F3FECF3983EDCF386951E
:1035200077956795B795F7959F5FC9F7880F911DB8
:103530009695879597F90895E1E0660F771F881FA4
:10354000BB1F621773078407BA0720F0621B730B57
:10355000840BBA0BEE1F88F7E0950895E89409C034
:1035600097FB3EF490958095709561957F4F8F4FB6
:103570009F4F9923A9F0F92F96E9BB279395F695CC
:10358000879577956795B795F111F8CFFAF4BB0F4A
:1035900011F460FF1BC06F5F7F4F8F4F9F4F16C0AE
:1035A000882311F096E911C0772321F09EE8872F38
:1035B000762F05C0662371F096E8862F70E060E0F4
:1035C0002AF09A95660F771F881FDAF7880F96956D
:1035D000879597F90895DF93CF931F930F938B01EE
:1035E000EC01E9EAF0E01BD05ED09801AE018B015E
:1035F000EC0160E070E080E89FE36ADEFCD09801B7
:10360000AE010F911F91CF91DF919AC097F99F67FB
:1036100080E870E060E008959FEF80EC0895DF930C
:10362000CF931F930F93FF92EF92DF927B018C0158
:10363000689405C0DA2EEF0183D0FE01E894A591CD
:103640002591359145915591AEF3EF0153DEFE0181
:103650009701A801DA9479F7DF90EF90FF900F912E
:103660001F91CF91DF9108959F938F937F936F93D5
:10367000FF93EF939B01AC0157D0EF91FF91CFDF08
:103680002F913F914F915F914FC000240A941616DD
:10369000170618060906089500240A941216130640
:1036A000140605060895092E0394000C11F48823CE
:1036B00052F0BB0F40F4BF2B11F460FF04C06F5FEA
:1036C0007F4F8F4F9F4F089557FD9058440F551FC0
:1036D00059F05F3F71F04795880F97FB991F61F094
:1036E0009F3F79F087950895121613061406551F0B
:1036F000F2CF4695F1DF08C0161617061806991F77
:10370000F1CF86957105610508940895E894BB276B
:1037100066277727CB0197F908959B01AC0160E0FC
:1037200070E080E89FE3B2CE0BD0BDCFAEDF28F0D3
:10373000B3DF18F0952309F069CF6ECF1124E7CFDE
:10374000C3DFA0F3959FD1F3950F50E0551F629F03
:10375000F001729FBB27F00DB11D639FAA27F00DEA
:10376000B11DAA1F649F6627B00DA11D661F829F11
:103770002227B00DA11D621F739FB00DA11D621FF6
:10378000839FA00D611D221F749F3327A00D611D13
:10379000231F849F600D211D822F762F6A2F1124F5
:1037A0009F5750408AF0E1F088234AF0EE0FFF1F48
:1037B000BB1F661F771F881F91505040A9F79E3F7F
:1037C000510570F023CFA3CF5F3FECF3983EDCF3BD
:1037D000869577956795B795F795E7959F5FC1F7BC
:1037E000FE2B880F911D9695879597F9089511F4F2
:1037F0000EF412CF41C070DFD0F39923D9F3CEF38A
:103800009F57550B87FF46D00024A0E640EA900161
:1038100080585695979528F4805C660F771F881F0F
:1038200020F026173707480730F4621B730B840B10
:10383000202931294A2BA695179407942025312554
:103840004A2758F7660F771F881F20F0261737077B
:10385000480730F4620B730B840B200D311D411DA2
:10386000A09581F7B901842F9158880F9695879577
:1038700008959B01AC0158CF9F3F31F0915020F447
:10388000879577956795B795880F911D969587953C
:1038900097F9089591505040660F771F881FD2F70F
:1038A0000895EF920F931F93CF93DF93E80147FFA3
:1038B00002C034E101C034E0E42FFF27E7FDF095BA
:1038C000F7FF03C0F195E195F109E32E022F2E2FAA
:1038D000AE010E949220CE01DF91CF911F910F91F6
:1038E000EF900895CF93DF938230910510F482E03A
:1038F00090E0E091B403F091B50320E030E0A0E067
:10390000B0E0309739F14081518148175907B8F03C
:103910004817590771F482819381109729F0139603
:103920009C938E9312972CC09093B5038093B4030D
:1039300027C02115310531F04217530718F0A901AE
:10394000DB0101C0EF019A01BD01DF010280F381BB
:10395000E02DD7CF21153105F9F0281B390B243084
:10396000310580F48A819B816115710521F0FB018D
:103970009383828304C09093B5038093B403FE01C4
:10398000329644C0FE01E20FF31F819391932250BF
:103990003109398328833AC02091B2033091B303AF
:1039A000232B41F420912501309126013093B3035C
:1039B0002093B20320912301309124012115310578
:1039C00041F42DB73EB74091270150912801241BA7
:1039D000350BE091B203F091B303E217F307A0F4C3
:1039E0002E1B3F0B2817390778F0AC014E5F5F4F55
:1039F0002417350748F04E0F5F1F5093B3034093D1
:103A0000B2038193919302C0E0E0F0E0CF01DF9137
:103A1000CF910895CF93DF93009709F487C0FC01FD
:103A2000329713821282C091B403D091B5032097CC
:103A300081F420813181280F391F8091B203909148
:103A4000B3038217930779F5F093B303E093B203BE
:103A50006DC0DE0120E030E0AE17BF0750F41296D3
:103A60004D915C9113979D014115510509F1DA01C2
:103A7000F3CFB383A28340815181840F951F8A17AE
:103A80009B0771F48D919C911197840F951F02965D
:103A90009183808312968D919C9113979383828357
:103AA0002115310529F4F093B503E093B4033EC02A
:103AB000D9011396FC93EE9312974D915D91A40F4B
:103AC000B51FEA17FB0779F480819181840F951F58
:103AD0000296D90111969C938E93828193811396BD
:103AE0009C938E931297E0E0F0E08A819B8100978F
:103AF00019F0FE01EC01F9CFCE010296288139813F
:103B0000820F931F2091B2033091B3032817390716
:103B100069F4309729F41092B5031092B40302C0EF
:103B200013821282D093B303C093B203DF91CF917B
:103B30000895A0E0B0E0EFE9FDE10C94A223EC01D0
:103B4000CB01209719F40E94721CB8C0FE01E60F49
:103B5000F71F9E0122503109E217F30708F4ACC0A9
:103B6000D9010D911C91119706171707B8F0053070
:103B7000110508F49FC0A801445051094617570782
:103B800008F498C002501109061B170B01931193FA
:103B90006D937C93CF010E940A1D8CC05B01A01A1B
:103BA000B10A4E01800E911EA091B403B091B503ED
:103BB000612C712C60E070E0109709F449C0A815E1
:103BC000B905C9F5ED90FC901197670142E0C40E6C
:103BD000D11CCA14DB0478F147018A189B086401E0
:103BE00042E0C40ED11C1296BC9012971396AC9171
:103BF000B5E0CB16D10440F0B282A38391828082DB
:103C0000D9018D939C9309C00E5F1F4F0E0D1F1D90
:103C1000F90111830083EB2DFA2F6115710531F045
:103C2000DB011396FC93EE93129744C0F093B50317
:103C3000E093B4033FC06D917C91119766167706AF
:103C400008F43B01BD0112960D90BC91A02DB4CF9C
:103C50006091B2037091B30368157905E9F46816B1
:103C60007906D0F44091230150912401411551056A
:103C700041F44DB75EB76091270170912801461B52
:103C8000570BE417F507C0F4F093B303E093B203C6
:103C9000F901918380830EC00E94721C7C01009701
:103CA00059F0A801BE010E94701ECE010E940A1D9B
:103CB000C70104C0CE0102C080E090E0CDB7DEB7FE
:103CC000EEE00C94BE23FB01DC0104C08D91019059
:103CD000801921F441505040C8F7881B990B089572
:103CE000FB01DC0102C001900D9241505040D8F719
:103CF0000895BB274A3031F4992322F4BDE2909510
:103D000081959F4F0C94851EBB27FB015527AA2741
:103D1000880F991FAA1FA41710F0A41B8395505158
:103D2000B9F7A05DAA3308F0A95DA193009779F7D0
:103D3000B111B1931192CB010C94FE22AEE0B0E030
:103D4000E4EAFEE10C94AC230D891E8986E08C83A5
:103D50001A8309838FEF9FE79E838D83AE01475EB1
:103D60005F4F6F89788DCE0101960E94C01EEF8152
:103D7000F885E00FF11F10822E96E4E00C94C82322
:103D8000ACE0B0E0E6ECFEE10C949E237C016B011C
:103D90008A01FC0117821682838181FFBDC1CE0199
:103DA00001964C01F7019381F60193FD859193FFF4
:103DB00081916F01882309F4ABC1853239F493FDF9
:103DC000859193FF81916F01853229F4B70190E0CD
:103DD0000E940E23E7CF512C312C20E02032A0F49A
:103DE0008B3269F030F4803259F0833269F420610B
:103DF0002CC08D3239F0803339F4216026C0226026
:103E0000246023C0286021C027FD27C030ED380F73
:103E10003A3078F426FF06C0FAE05F9E300D112498
:103E2000532E13C08AE0389E300D1124332E2062A9
:103E30000CC08E3221F426FD6BC1206406C08C3686
:103E400011F4206802C0883641F4F60193FD859193
:103E500093FF81916F018111C1CF982F9F7D955460
:103E6000933028F40C5F1F4FFFE3F9830DC08336B6
:103E700031F0833771F0833509F05BC022C0F8015F
:103E8000808189830E5F1F4F44244394512C540139
:103E900015C03801F2E06F0E711CF801A080B180EE
:103EA00026FF03C0652D70E002C06FEF7FEFC501F4
:103EB0002C870E94F3222C0183012C852F77222E40
:103EC00017C03801F2E06F0E711CF801A080B180BC
:103ED00026FF03C0652D70E002C06FEF7FEFC501C4
:103EE0002C870E94E8222C012C852068222E830139
:103EF00023FC1BC0832D90E048165906B0F4B7018F
:103F000080E290E00E940E233A94F4CFF50127FC62
:103F1000859127FE81915F01B70190E00E940E23F9
:103F200031103A94F1E04F1A51084114510471F7DD
:103F3000E5C0843611F0893639F5F80127FF07C04E
:103F400060817181828193810C5F1F4F08C0608105
:103F50007181882777FD8095982F0E5F1F4F2F76F0
:103F6000B22E97FF09C090958095709561957F4F0F
:103F70008F4F9F4F2068B22E2AE030E0A4010E94AC
:103F80004023A82EA81844C0853729F42F7EB22ECE
:103F90002AE030E025C0F22FF97FBF2E8F36C1F026
:103FA00018F4883579F0B4C0803719F0883721F0DB
:103FB000AFC02F2F2061B22EB4FE0DC08B2D8460B8
:103FC000B82E09C024FF0AC09F2F9660B92E06C0E4
:103FD00028E030E005C020E130E002C020E132E01E
:103FE000F801B7FE07C060817181828193810C5F07
:103FF0001F4F06C06081718180E090E00E5F1F4F0F
:10400000A4010E944023A82EA818FB2DFF77BF2EE5
:10401000B6FE0BC02B2D2E7FA51450F4B4FE0AC0A3
:10402000B2FC08C02B2D2E7E05C07A2C2B2D03C090
:104030007A2C01C0752C24FF0DC0FE01EA0DF11D84
:104040008081803311F4297E09C022FF06C0739459
:10405000739404C0822F867809F0739423FD13C0F3
:1040600020FF06C05A2C731418F4530C5718732CE5
:10407000731468F4B70180E290E02C870E940E234D
:1040800073942C85F5CF731410F4371801C0312CBC
:1040900024FF12C0B70180E390E02C870E940E231A
:1040A0002C8522FF17C021FF03C088E590E002C0E5
:1040B00088E790E0B7010CC0822F867859F021FD87
:1040C00002C080E201C08BE227FD8DE2B70190E0E3
:1040D0000E940E23A51438F4B70180E390E00E94FB
:1040E0000E235A94F7CFAA94F401EA0DF11D8081B2
:1040F000B70190E00E940E23A110F5CF332009F400
:1041000051CEB70180E290E00E940E233A94F6CFA0
:10411000F7018681978102C08FEF9FEF2C96E2E135
:104120000C94BA236F927F929F92AF92BF92CF92DC
:10413000DF92EF92FF920F931F93CF93DF93CDB750
:10414000DEB729970FB6F894DEBF0FBECDBF6A0168
:10415000B22E102F0C3320F4FF24F394F00E02C083
:104160004CE3F42E0F2D27E0AE014F5F5F4F0E940E
:1041700010227981272F2970213031F0E1FC06C00F
:10418000E0FC06C060E005C06DE203C06BE201C068
:1041900060E2AE2DA07173FF36C0662311F084E09B
:1041A00001C083E08B1510F4B81A01C0B12CA11125
:1041B0000BC0F6018B2D90E2882319F0919381506A
:1041C000FBCFCB0CD11CB12C662331F0F601608300
:1041D00096012F5F3F4F6901C6010396E2FE05C0BD
:1041E0002EE4F601208331E404C02EE6F60120839C
:1041F00031E631832283FC012B2D30E22223F1F1C1
:1042000031932150FBCF72FF40C0662311F084E050
:1042100001C083E08B1510F4B81A01C0B12CA111B4
:104220000BC0F6018B2D90E2882319F091938150F9
:10423000FBCFCB0CD11CB12C662331F0F60160838F
:1042400096012F5F3F4F6901C6010396E2FE07C04A
:1042500029E4F60120832EE4218326E406C029E622
:10426000F60120832EE6218326E62283FC012B2DF6
:1042700030E2222319F031932150FBCFFC01EB0DEA
:10428000F11D10828EEF9FEFB7C0B1E0611101C048
:10429000B0E04B2F50E01816190624F49C012F5F54
:1042A0003F4F02C021E030E0240F351F112329F0D9
:1042B000412F50E04F5F5F4F02C040E050E0420F9F
:1042C000531F2B2D30E04217530714F4B41A01C0CA
:1042D000B12C2E2D287159F4F6012B2D30E222231A
:1042E00019F031932150FBCFCB0CD11CB12CBB2347
:1042F00031F0F601608396012F5F3F4F6901A111F4
:104300000BC0F6012B2D30E3222319F031932150FD
:10431000FBCFCB0CD11CB12CF80E0A81372F30719A
:10432000A32E74FF03C0013309F4FA941F142CF474
:104330002F2D293018F028E001C021E0682F392FF7
:1043400097FF02C060E030E0462F532F612C712CA4
:104350003EE2932EBC01621B71099B01DC01A41B90
:10436000B50BE1E0F0E0EC0FFD1FAE0FBF1FE12E3B
:10437000F12CF194E194F1084F3FFFEF5F0731F426
:10438000F6019082B6016F5F7F4F6B01841795072E
:104390004CF02417350734F4BD01660D771DFB0181
:1043A000118101C010E341505109FFEF6F1A7F0ADC
:1043B000B6016F5F7F4F4E155F0524F0F601108345
:1043C0006B01DACF4817590739F4063320F4053367
:1043D00019F4A11001C011E3F6011083FB018B2D2C
:1043E00090E2882319F091938150FBCFFB01EB0DF4
:1043F000F11D108280E090E029960FB6F894DEBFA0
:104400000FBECDBFDF91CF911F910F91FF90EF9025
:10441000DF90CF90BF90AF909F907F906F90089566
:10442000283008F027E03327DA01990F311D87FD86
:10443000916000966105710539F432602E5F3D93FD
:1044400030E32A95E1F708959F3F30F080387105F9
:10445000610509F03C5F3C5F3D93913008F0806856
:10446000911DDF93CF931F930F93FF92EF92192F1C
:10447000987F9695E92F96959695E90FFF27EC552D
:10448000F64F99273327EE24FF24A701E701059073
:104490000894079428F4360FE71EF81E491F511D93
:1044A000660F771F881F991F0694A1F70590079440
:1044B00028F4E70EF81E491F561FC11D770F881FED
:1044C000991F661F0694A1F70590079428F4F80E2B
:1044D000491F561FC71FD11D880F991F661F771FC1
:1044E0000694A1F70590079420F4490F561FC71FA3
:1044F000D81F990F661F771F881F0694A9F784910C
:104500001095177041F0D695C79557954795F79434
:10451000E7941A95C1F7EAE4F9E0689415901591CB
:1045200035916591959105907FE27395E118F10AB7
:10453000430B560BC90BD009C0F7E10CF11E431F0A
:10454000561FC91FD01D7EF4703311F48A95E6CF33
:10455000E894015030F0080F0AF40027021708F41D
:10456000202F2395022F7A3328F079E37D932A9523
:10457000E9F710C07D932A9589F60694979567957B
:10458000379517951794E118F10A430B560BC90B91
:10459000D00998F023957E9173957A3308F070E3F3
:1045A0007C932013B8F77E9170617D9330F08395F2
:1045B00071E37D9370E32A95E1F71124EF90FF906A
:1045C0000F911F91CF91DF91992787FD90950895C5
:1045D000FC010590615070400110D8F780959095CE
:1045E0008E0F9F1F0895FC016150704001900110D3
:1045F000D8F7809590958E0F9F1F0895DC01FC01E0
:10460000672F71917723E1F7329704C07C916D9306
:1046100070836291AE17BF07C8F308950F931F937D
:10462000CF93DF93182F092FEB018B8181FD03C0FE
:104630008FEF9FEF20C082FF10C04E815F812C81E1
:104640003D81421753077CF4E881F9819F012F5F78
:104650003F4F39832883108306C0E885F985812F71
:104660000995892B29F72E813F812F5F3F4F3F838B
:104670002E83812F902FDF91CF911F910F9108955D
:10468000FA01AA27283051F1203181F1E8946F9383
:104690006E7F6E5F7F4F8F4F9F4FAF4FB1E03ED029
:1046A000B4E03CD0670F781F891F9A1FA11D680FC7
:1046B000791F8A1F911DA11D6A0F711D811D911DFA
:1046C000A11D20D009F468943F912AE0269F11246F
:1046D0003019305D3193DEF6CF010895462F4770D3
:1046E000405D4193B3E00FD0C9F7F6CF462F4F702E
:1046F000405D4A3318F0495D31FD4052419302D08C
:10470000A9F7EACFB4E0A695979587957795679531
:10471000BA95C9F700976105710508959B01AC0131
:104720000A2E06945795479537952795BA95C9F758
:10473000620F731F841F951FA01D08952F923F9233
:104740004F925F926F927F928F929F92AF92BF92A1
:10475000CF92DF92EF92FF920F931F93CF93DF934D
:10476000CDB7DEB7CA1BDB0B0FB6F894DEBF0FBEAA
:10477000CDBF09942A88398848885F846E847D84F7
:104780008C849B84AA84B984C884DF80EE80FD80F9
:104790000C811B81AA81B981CE0FD11D0FB6F8946F
:0E47A000DEBF0FBECDBFED010895F894FFCF30
:1047AE00E8E8F0F0E2C1C2C2C2C6C1C2C2C2C5C10F
:1047BE00C2C2C2C4C1C2C2C2C3C1C2C2C2C2E8E87E
:1047CE00F0F0E20000B60320004142434445464764
:1047DE0048494A4B4C4D4E4F5051525354555657D3
:1047EE0058595A6162636465666768696A6B6C6D75
:1047FE006E6F707172737475767778797A30313234
:10480E00333435363738392B2F0040404040404046
:10481E00404040404040404040404040404040408A
:10482E00404040404040404040404040404040407A
:10483E0040404040403E4040403F343536373839A6
:10484E003A3B3C3D404040404040400001020304A2
:10485E0005060708090A0B0C0D0E0F101112131482
:10486E0015161718194040404040401A1B1C1D1EBB
:10487E001F202122232425262728292A2B2C2D2EC2
:10488E002F30313233404040404040404040404065
:10489E00404040404040404040404040404040400A
:1048AE0040404040404040404040404040404040FA
:1048BE0040404040404040404040404040404040EA
:1048CE0040404040404040404040404040404040DA
:1048DE0040404040404040404040404040404040CA
:1048EE0040404040404040404040404040404040BA
:1048FE0040404040404040404040404040404040AA
:10490E0040404040404040404040583D00593D00EE
:10491E005A3D00415800415900425800425900206A
:10492E002020202000696E666F0D0A0053544154FA
:10493E0055533A20253032580D0A00434F4E464902
:10494E00473A20253032580D0A0052465F43483A06
:10495E0020253032580D0A0052465F5345545550AB
:10496E003A20253032580D0A00454E5F41413A201B
:10497E00253032580D0A00454E5F5258414444527C
:10498E003A20253032580D0A004F425345525645B3
:0C499E005F54583A20253032580D0A00B2
:00000001FF
