:100000000C94A5040C942C120C94C2040C94C204FD
:100010000C94C2040C94C2040C94C2040C94C20448
:100020000C94C2040C94C2040C94C2040C94C20438
:100030000C94C2040C94C2040C94C2040C94C20428
:100040000C94C4040C94C2040C9427060C9455061A
:100050000C94C2040C94C2040C94C2040C94C20408
:100060000C94C2040C94C204036EDB363D9A999939
:10007000993DABAAAA2A3E000000803F084AD73B20
:100080003BCE016E84BCBFFDC12F3D6C74319ABD67
:1000900056833DDA3D00C77F11BED9E4BB4C3E918B
:1000A0006BAAAABE000000803F072C7AA5BA6CC5D7
:1000B00090DA3B9365FC8BBC53F810FD3C56928361
:1000C0004DBD879D3AB63DCBC9BF5BBE73DA0FC944
:1000D0003F0001B202FFFF0190040923A135016A2C
:1000E000020600016008000000000000000000603F
:1000F00004400000000162020000006004004000B3
:1001000000037B034CCD6C03AB03365676006804CA
:1001100002CB47A202180400058BC1010C040000A9
:100120000000037F060CC92C979797038903264686
:1001300066006C022000024004000000000244043B
:100140000000000002480400000000024C0400000F
:1001500000000250040000000002540400000000EF
:1001600002580400000000025C040000000002BC11
:10017000040000000001EC0400004000037F060CB6
:10018000C92C9797970402030D355D040904872D48
:10019000353D00A3010000000001078601FE074174
:1001A00005F120283038077E01300746019A0747BD
:1001B00004F1283038076C04F128303802160200A8
:1001C00009FB00003E000B003600010002000300A6
:1001D0000000650054FFEF0000FA80000B1282005F
:1001E000010002000000000000000000000000000C
:1001F0000000280000FFFF4581FFFFFA72000000A9
:1002000000000003E80000000100017FFFFFFE8006
:1002100001001B00000000000000000000000000C2
:1002200000003E03304000000002CAE3093E8000A7
:1002300000200000000000000040000000600000FE
:100240000041FF000000000B2A00001655000021AD
:1002500082FD872650FD800000001F000000058001
:100260000000000000000100000002000000030088
:1002700000400000000000046F0002653200005ED4
:10028000C04000000000000000000000000000006E
:1002900000FB8C6F5DFD5D08D9007C733B006C1228
:1002A000CC3200139D3200D0D6320008004000014D
:1002B000F4FFE68079020000000000D0D60000279D
:1002C00010FB0000004000000000000000000000E3
:1002D000000000000100000000000001000100001B
:1002E000000000FA36FFBC308E0005FBF0FFD95B42
:1002F000C8FFD09ABE000010A9FFF41EB200CEBB0A
:10030000F7000000010000000400020002020000EB
:100310000CFFC280000001800000CF800040000080
:1003200000000000010000000000000600000000C6
:1003300014000000000000000000000000000000A9
:1003400000000000000000000000000000000000AD
:10035000000000000000000000000000000000009D
:100360000000000000033F68B6793528BCC67ED186
:100370006C80000000400000000000B26A00000035
:1003800000000000000000000000003FF00000003E
:10039000300000000000000000000000000000002D
:1003A000000000000000000000000000000000004D
:1003B000000000254D002F706D000005AE000C02FE
:1003C000D00000000000650054FFEF0000000000B6
:1003D00000000001000044000000000C00000001CB
:1003E00000000000000065000000540000FFEF0066
:1003F00000000000000000000000000000000000FD
:1004000000400000000000000000000000000000AC
:10041000004000000000000000000000000000009C
:1004200000000000010000000200000000000000C9
:1004300000000000000000000000000000000000BC
:1004400000000000000000000000000000000000AC
:1004500000001B0000000000000000000000000081
:10046000000000000000000000000000000000008C
:10047000000000000000000000000000004000003C
:1004800000001B0000000000000000000000000051
:10049000000000000000000000000000000000005C
:1004A000000000000000000000000000000000004C
:1004B000000000000000000000000000000000003C
:1004C00000D8DCBAA2F1DEB2B8B4A88191F74A90A4
:1004D0007F916AF3F9DBA8F9B0BAA080F2CE81F37C
:1004E000C2F1C1F2C3F3CCA2B280F1C6D880BAA7E0
:1004F000DFDFDFF2A7C3CBC5B6F087A29424487034
:100500003C95406834589B78A2F183922D557DD854
:10051000B1B4B8A1D09180F270F370F27C80A8F1F0
:1005200001B09887D943D886C988BAA1F20EB89786
:1005300080F1A9DFDFDFAADFDFDFF2AAC5CDC7A91F
:100540000CC92C97979797F1A989264666B0B4BA3B
:1005500080ACDEF2CAF1B28C02A9B69800890E1600
:100560001EB8A9B4992C547CB08AA896365676F158
:10057000B9AFB4B083C0B8A89711B18F98B9AFF034
:10058000240844106418F1A329557DAF83B593AFB7
:10059000F0002850F1A3869F61A6DADEDFD9FAA326
:1005A0008696DB31A6D9F8DFBAA68FC2C5C7B28C52
:1005B000C1B8A2DFDFDFA3DFDFDFD8D8F1B8A8B290
:1005C00086B4980D355DB8AA98B0872D353DB2B682
:1005D000BAAF8C96198F9FA70E161EB49AB8AA8729
:1005E0002C547CB9A3DEDFDFA3B180F2C4CDC9F106
:1005F000B8A9B499830D355D89B9A32D557DB593FF
:10060000A30E161EA92C547CB8B4B0F19783A81180
:1006100084A50998A383F0DA240844106418D8F15B
:10062000A529557DA58595021A2E3A565A4048F9B6
:10063000F3A3D9F8F098832408441064189782A88B
:10064000F111F098A2240844106418DAF3DED8837C
:10065000A59401D9A302F1A2C3C5C7D8F18492A27F
:100660004DDA2AD84869D92AD86855DA32D8507173
:10067000D932D8705DDA3AD85879D93AD87893A374
:100680004DDA2AD84869D92AD86855DA32D8507153
:10069000D932D8705DDA3AD85879D93AD878A88A58
:1006A0009AF02850789EF38818F19F1D98A8D908D1
:1006B000D8C89F129EF315A8DA1210D8F1AFC897C8
:1006C0008734B5B994A421F3D922D8F22DF3D92ACD
:1006D000D8F235F3D932D881A4606061D961D86C81
:1006E0006869D969D8747071D971D8B1A384193D7A
:1006F0005DA3831A3E5E931030811011B8B0AF8FA6
:1007000094F2DA3ED8B49AA88729DAF8D8879A35CD
:10071000DAF8D8879A3DDAF8D8B1B9A49885022ECC
:1007200056A581000C14A397B08AF12DD928D84D75
:10073000D948D86DD968D8B1840DDA0ED8A32983E9
:10074000DA2C0ED8A3844983DA2C4C0ED8B8B0A882
:100750008A9AF520AADADFD8A840AAD0DADED8A88B
:1007600060AADAD0DFD8F19786A8319B069907AB4B
:100770009728889BF00C201440B8B0B4A88C9CF04B
:10078000042851791D301438B282ABD0982C5050C7
:1007900078789BF11AB0F08A9CA82951798B29515D
:1007A000798A2470598B2058718A4469388B394072
:1007B000688A6448318B304960A5882009715844A3
:1007C00068113964493019F1AC002C547CF08CA8C4
:1007D00004285078F1889726A85998AC8C022646B0
:1007E00066F0899CA8295179247059446938644875
:1007F00031A98809205970AB11384069A8193148CE
:10080000608CA83C415C207C00F187981986A86E1A
:10081000767EA999882D557D9EB9A38A228A6E8AF3
:10082000568A5E9FB183062646660E2E4E6E9DB892
:10083000AD002C547CF2B18CB499B9A32D557D81B7
:1008400091AC38AD3AB58391AC2DD928D84DD94863
:10085000D86DD968D88C9DAE29D904AED851D904A9
:10086000AED879D904D881F39DAD008DAE1981AD94
:10087000D901D8F2AEDA26D88E912983A7D9ADADA9
:10088000ADADF32AD8D8F1B0AC89913E5E76F3AC29
:100890002E2EF1B18C5A9CAC2C2828289CAC3018F8
:1008A000A8988128343C9724A728343C9C24F2B093
:1008B00089AC912C4C6C8A9B2DD9D8D851D9D8D8D9
:1008C00079D9D8D8F19E88A331DAD8D8912DD928F2
:1008D000D84DD948D86DD968D8B18393353D802596
:1008E000DAD8D88569DAD8D8B49381A328343CF310
:1008F000AB8BF8A391B609B4D9ABDEFAB0879CB93B
:10090000A3DDF1A3A3A3A395F1A3A3A39DF1A3A3A7
:10091000A3A3F2A3B49080F2A3A3A3A3A3A3A3A32E
:10092000A3A3B2A3A3A3A3A3A3B087B599F1A3A341
:10093000A398F1A3A3A3A397A3A3A3A3F39BA3A308
:10094000DCB9A7F1262626D8D8FF11241FBECFEF89
:10095000D8E0DEBFCDBF12E0A0E0B1E0EAE4FFE303
:1009600002C005900D92A43EB107D9F723E0A4EE92
:10097000B2E001C01D92AA39B207E1F70E948817C0
:100980000C94A31F0C9400001F920F920FB60F92AD
:1009900011242F933F934F935F936F937F938F9384
:1009A0009F93AF93BF938091E4029091E5020196EB
:1009B0009093E5028093E4028091E4029091E50235
:1009C00080FD6EC08091E4029091E50260E177E2E3
:1009D0000E94AE17892B09F04DC08091320390918F
:1009E00033038039914060F48091E602882321F03E
:1009F0008091E602815001C084E08093E60213C03A
:100A000080913203909133038D3B924060F080914E
:100A1000E6028F5F8093E6028091E60265E00E9425
:100A2000A0179093E60280913403909135038039AA
:100A3000914050F480910201882321F080910201BD
:100A4000815016C087E014C0809134039091350323
:100A50008D3B924078F0809102018F5F809302017C
:100A600080910201877887FF03C08150886F8F5F74
:100A70008093020181E088B98FEF85B948B1209158
:100A8000E6022F5F81E090E0BC0102C0660F771F95
:100A90002A95E2F7462B48B925B1309102016DC085
:100AA0008091E4029091E50268E873E10E94AE173C
:100AB000019709F04DC0809136039091370380393A
:100AC000914060F480910101882321F0809101011F
:100AD000815001C084E08093010113C080913603EE
:100AE000909137038D3B924060F0809101018F5FC0
:100AF000809301018091010165E00E94A01790930D
:100B0000010180913803909139038039914050F46C
:100B100080910001882321F080910001815016C04E
:100B200087E014C080913803909139038D3B924047
:100B300078F0809100018F5F809300018091000127
:100B4000877887FF03C08150886F8F5F8093000193
:100B500081E088B98FEF85B948B1209101012F5FFD
:100B600081E090E0BC0102C0660F771F2A95E2F792
:100B7000462B48B925B13091000101C0880F3A9544
:100B8000EAF7282725B9BF91AF919F918F917F9167
:100B90006F915F914F913F912F910F900FBE0F90EA
:100BA0001F901895CF9388E68AB98EE387B98FEFA7
:100BB00084B9C1E0C0936E0016BC83E085BD89E1B5
:100BC00090E00E947F0681EA84BDC5BD17BC18BCB9
:100BD00081E28093B000C093B1001092B400789489
:100BE000109231031092300380E293E0909333032C
:100BF00080933203909335038093340388EC90E024
:100C0000909337038093360390933903809338038E
:100C100010923A0310923B0310923C0310923D0352
:100C200010923E0310923F03109240031092410332
:100C30001092420310924303109244031092450312
:100C40008AE08093B40088BD87BDCF9108951F923C
:100C50000F920FB60F9211242F938F939F93EF93C0
:100C6000FF938091C0009091C6008871E091E902E5
:100C7000EF5FEF712091E802E21739F0E093E902AB
:100C8000F0E0E451FD4F908301C082E09091E702D3
:100C9000982B9093E702FF91EF919F918F912F9165
:100CA0000F900FBE0F901F9018951F920F920FB6C6
:100CB0000F9211248F939F93EF93FF939091EB02E8
:100CC0008091EA02981769F0E091EA02EF5FEF7114
:100CD000E093EA02F0E0E45FFC4F80818093C6007D
:100CE00005C08091C1008F7D8093C100FF91EF917D
:100CF0009F918F910F900FBE0F901F90189510929B
:100D0000EB021092EA021092E9021092E80297FFB9
:100D100004C022E02093C0009F779093C500809389
:100D2000C40088E98093C10086E08093C2000895E2
:100D30009091E9028091E802981781F0E091E80231
:100D4000EF5FEF71E093E802F0E0E451FD4F808146
:100D50009091E7021092E70290E0089580E091E020
:100D600008959091EB029F5F9F712091EA02921784
:100D7000E1F3E92FF0E0E45FFC4F80839093EB0216
:100D80008091C10080628093C1000895CF93DF936A
:100D9000EC018991882319F00E94B106FACFDF9106
:100DA000CF910895CF93DF93FC018491EF012196B9
:100DB000882321F00E94B106FE01F7CFDF91CF9189
:100DC00008955E9A00C05E9808951F93CF93DF93B5
:100DD0001F92CDB7DEB7662311F05C9A01C05C9814
:100DE0005D989AB19F609AB91BB1107F982F929528
:100DF0009F70912B9BB989830E94E10689818F7036
:100E0000812B8BB90E94E1061F601BB90F90DF9107
:100E1000CF911F9108955C985D9A8AB1807F8AB9BD
:100E20005E9A00C089B15E9800C05E9A00C099B118
:100E30009F708295807F5E98892B0895CF93DF9372
:100E4000C0E6DAEE0E940B0787FF04C0209711F07E
:100E50002197F8CF00C0CD2B21F0DF91CF910C94DA
:100E60000B078FEFDF91CF910895CF93C82F0E948A
:100E70001E0760E08C2FCF910C94E506CF93C82F0E
:100E80000E941E0761E08C2FCF910C94E506611142
:100E900002C0805801C080540C9435070E941E0780
:100EA00090E0089581E00C94350782E00C943507BA
:100EB000CF93C82F0E941E07CA3049F4803410F423
:100EC00080E401C080E08058CF910C9435078031D8
:100ED00019F460E080EC04C0803521F460E080E823
:100EE0000E94E5060E941E0761E08C2FCF910C94B2
:100EF000E506CF93DF93EC018991882319F00E94D6
:100F00005807FACFDF91CF910895CF93DF93FC017B
:100F10008491EF012196882321F00E945807FE0159
:100F2000F7CFDF91CF910895CF93C82F9AB19F67E4
:100F30009AB9E0EAFFE03197F1F7599A589A0E947E
:100F4000E106E0EEF4E03197F1F70E94E106E0E11E
:100F5000F0E03197F1F70E94E106E0E1F0E031972F
:100F6000F1F758980E94E106E0E1F0E03197F1F7DF
:100F700088E20E9435070E941E078F3F69F088E0D3
:100F80000E9435070E94520786E00E9435078C2F89
:100F90000E94350780E001C08FEFCF910895109235
:100FA000B90080E28093B800089594EA9093BC0061
:100FB0004FEF50E060E070E09091BC0097FD06C0FC
:100FC0004150510961097109B8F706C0452B462BFC
:100FD000472B11F481E008959091B900987F9830E3
:100FE00011F09031B9F78093BB0084E88093BC0086
:100FF0008FEF90E0A0E0B0E02091BC0027FD05C09D
:101000000197A109B109C0F704C0892B8A2B8B2B4A
:1010100009F38091B900887F883111F08034D1F6CE
:1010200080E0089544EA54E864E94093BC0020E07D
:1010300030E09091BC0097FD06C02F5F3F4F211517
:1010400091E03907B1F79091B900987F983011F08D
:10105000903159F78093BB005093BC0020E030E002
:101060009091BC0097FD06C02F5F3F4F211591E086
:101070003907B1F79091B900987F903211F0983507
:1010800079F46093BC0020E030E09091BC0094FFC4
:10109000CCCF2F5F3F4F211591E03907B1F7C5CF76
:1010A00008950C94D50784E98093BC0080E090E01B
:1010B0002091BC0024FF05C00196811521E0920714
:1010C000B9F708958093BB0084E88093BC008FEF4C
:1010D00090E0A0E0B0E02091BC0027FD05C00197A2
:1010E000A109B109C0F704C0892B8A2B8B2B41F0D1
:1010F0009091B900987F81E0983219F480E00895CA
:1011000081E0089584EC8093BC008FEF90E0A0E034
:10111000B0E02091BC0027FD05C00197A109B109ED
:10112000C0F704C0892B8A2B8B2B19F08091BB0050
:10113000089580E0089584E88093BC008FEF90E0EC
:10114000A0E0B0E02091BC0027FD05C00197A109F7
:10115000B109C0F704C0892B8A2B8B2B19F0809121
:10116000BB00089580E00895AF92BF92DF92EF92A6
:10117000FF920F931F93CF93DF9300D0CDB7DEB7CD
:10118000182FD62E80ED49835A830E94D507812FD0
:101190000E9462088AE18A95F1F700C081ED0E9401
:1011A000D5074981A42E5A81B52E00E010E0ED2C20
:1011B000F12CE1E0EE1AF1080D1580F40E151F0573
:1011C00019F40E949B0802C00E948208F5018083E6
:1011D0000F5F1F4FFFEFAF1ABF0AEECF0E945308F9
:1011E0008D2D0F900F90DF91CF911F910F91FF9058
:1011F000EF90DF90BF90AF900895EF92FF920F9322
:101200001F93CF93DF9300D0CDB7DEB7082F162FF3
:1012100080ED49835A830E94D507802F0E9462087F
:101220004981042FE42E5A81F52E8E2D801B8117C3
:1012300030F4F70181917F010E946208F6CF0F9090
:101240000F90DF91CF911F910F91FF90EF900C9431
:10125000530861110C94B40880E00895AB0161E07B
:101260000C94B40861110C94FD080895CF93DF939A
:101270001F92CDB7DEB76983AE014F5F5F4F61E06C
:101280000E94FD080F90DF91CF9108950F931F9357
:10129000CF93DF9300D01F92CDB7DEB7182F062F64
:1012A0001982BE016F5F7F4F2B834A830E942E09F4
:1012B0002B814A81882309F1602F70E0641B71093A
:1012C0006F5F7F4FE1E0F0E002C0EE0FFF1F4A9535
:1012D000E2F73197062E01C0EE0F0A94EAF701C03B
:1012E000220F6A95EAF76E2F609589816823E223C1
:1012F0006E2B6983812F0E9436090F900F900F90FB
:10130000DF91CF911F910F910895FF920F931F933B
:10131000CF93DF9300D0CDB7DEB7F62E89014423FB
:1013200039F1BE016F5F7F4F4A830E942E094A81C7
:101330008823F9F06F2D70E0641B71096F5F7F4F98
:10134000E1E0F0E002C0EE0FFF1F4A95E2F73197AF
:10135000062E01C0EE0F0A94EAF749814E2350E0B1
:1013600002C0559547956A95E2F7F801408301C0A0
:1013700080E00F900F90DF91CF911F910F91FF9020
:101380000895FF920F931F93CF93DF931F92CDB7D2
:10139000DEB7F62E8A01BE016F5F7F4F0E942E09D5
:1013A00021E030E001C0220FFA94EAF799819223FC
:1013B000F80190830F90DF91CF911F910F91FF90D3
:1013C000089541110C94460908950F931F93CF93EC
:1013D000DF9300D0CDB7DEB7182F062FBE016F5FA9
:1013E0007F4F4A830E942E0989814A8121E030E0A3
:1013F000002E01C0220F0A94EAF7442319F0682F47
:10140000622B03C0622F609568236983812F0E943D
:1014100036090F900F90DF91CF911F910F91089592
:10142000EF92FF920F931F93CF93DF93D82FC62F86
:101430008A01662361F180ED0E94D5078D2F0E94FD
:101440006208D0E0CC0FDD1FF12CEF2DF0E0EC179F
:10145000FD07ACF4EE24E394EF0CEE0FFF1FE00F5A
:10146000F11F81810E946208F801EE0DF11DEE0D61
:10147000F11D80810E946208F394F394E6CFDF911E
:10148000CF911F910F91FF90EF900C945308DF9133
:10149000CF911F910F91FF90EF9008958F7141119F
:1014A000806261118064682F8DE60C943609682F84
:1014B0008EE60C9436099F92AF92BF92CF92DF9244
:1014C000EF92FF920F931F93CF93DF937C018B01D9
:1014D000A42EB22E642F6F718DE60E9436098B2DDB
:1014E0000E94570AC0E0D0E0C12CDD24D394C0177D
:1014F000D10768F5CE0140960817190718F4902E09
:101500009C1A02C020E1922EA92DB0E0F601EB1941
:10151000F109EA17FB0714F49B2C9194A7014C0FD7
:101520005D1F692D8FE60E942909C90DD11DB90CD7
:10153000C017D107E0F6B11001C0A3946A2D6F71F6
:101540008DE60E9436098B2D0E94570AD0CFDF917D
:10155000CF911F910F91FF90EF90DF90CF90BF90B0
:10156000AF909F9008952F923F925F926F927F92DB
:101570008F929F92AF92BF92CF92DF92EF92FF92A3
:101580000F931F93CF93DF933C015B01242E122F07
:10159000642F6F718DE60E943609812F0E94570AD1
:1015A000002331F080E190E00E94CB1A6C0102C070
:1015B000C12CD12CEE2039F080E190E00E94CB1AB2
:1015C000F82E392E02C0F12C312CC0E0D0E0CA1523
:1015D000DB0508F066C0CE014096A816B90618F4DF
:1015E0005A2C5C1A02C040E1542E452D50E080E098
:1015F00091E0811B91098417950714F4512E5194A1
:10160000F301EC0FFD1FEE2059F08F2DAF2DB32D00
:101610009A2F981B951530F494919D933196F8CF9D
:10162000FE2E3F2E4F2D532D652D8FE60E94320941
:10163000852C912C002311F1C114D104F9F0622DF5
:101640006F718DE60E943609812F0E94570AA6010C
:10165000652D8FE60E942909A401B6018F2D932DD7
:101660000E94BC1C892B51F0C6010E94631BEE2016
:1016700021F18F2D932D0E94631B1FC0C80DD91D12
:10168000150DCA15DB0508F0A2CF111101C0239476
:10169000622D6F718DE60E943609812F0E94570AD4
:1016A00096CF002319F0C6010E94631BEE2039F08B
:1016B0008F2D932D0E94631B02C080E001C081E04A
:1016C000DF91CF911F910F91FF90EF90DF90CF901E
:1016D000BF90AF909F908F907F906F905F903F9062
:1016E0002F9008952F923F925F926F927F928F92E8
:1016F0009F92AF92BF92CF92DF92EF92FF920F93A1
:101700001F93CF93DF9300D0CDB7DEB71C014B0101
:10171000642E442339F088E090E00E94CB1A782EA2
:10172000592E02C0712C512C00E010E0081519054B
:1017300008F044C0F101E00FF11FC80103966C01ED
:101740006620A1F04491F8013196E20DF31D249139
:10175000F8013296E20DF31DA490A1103AC00C5F7F
:101760001F4FF101E80FF91F84910BC040812181C7
:10177000A280F101E80FF91FA1100AC00C5F1F4FF2
:1017800080818130A1F462E388E30E943609CECFE4
:101790007E2E5F2EB12CE12C01E0B501872D952D19
:1017A0000E94B30A85010C0D1D1D8111BFCF66205B
:1017B00061F0872D952D0E94631B07C0662039F0CC
:1017C000872D952D0E94631B02C080E025C081E01B
:1017D00023C0EA2CF12CF2E0FA1558F4B701872D5A
:1017E000952D2A8349830E94F21B782E592E498118
:1017F0002A81072D152DA0E0B0E0C1018C0D9D1DA3
:10180000AE15BF0538F6FC01EA0FFB1F3491F80155
:1018100031938F011196F4CF0F900F90DF91CF91FC
:101820001F910F91FF90EF90DF90CF90BF90AF90FE
:101830009F908F907F906F905F903F902F90089532
:1018400046E453E062E082E70E94290920914603C2
:101850008091470390E0922B0895AC0184E70C94AB
:10186000290966E473E08AE30E942E098091460309
:10187000089541E062E08AE60C94E50926E433E04D
:1018800046E066E080E00E94850980914603089565
:10189000282F46E066E080E00C94460926E433E019
:1018A00046E066E081E00E94850980914603089544
:1018B000282F46E066E081E00C94460926E433E0F8
:1018C00046E066E082E00E94850980914603089523
:1018D000282F46E066E082E00C94460940E066E08E
:1018E0008BE60C94E50941E066E08BE60C94E50993
:1018F00026E433E046E066E085E70E9485099091A2
:10190000460381E0943309F080E008950E94CF07F8
:101910002AE12A95F1F700C08FEF90E722E081508D
:1019200090402040E1F700C000000E946E0C8FE163
:101930009EE40197F1F700C0000021E043E062E07F
:101940008BE60E94460923E043E062E08AE10E94C0
:10195000460964E089E10E94360923E042E064E040
:101960008BE10E94460920E042E064E08CE10C94A7
:1019700046098F929F92AF92BF92CF92DF92EF92E1
:10198000FF920F931F93CF93DF93EC015B016A01EA
:10199000490146E453E06EE08BE30E94290920915F
:1019A00046038091470390E0922B9983888320918E
:1019B00048038091490390E0922BF5019183808345
:1019C00020914A0380914B0390E0922BF601918382
:1019D000808320914E0380914F0390E0922BF4017D
:1019E00091838083209150038091510390E0922B4A
:1019F000F80191838083209152038091530390E0FA
:101A0000922BF70191838083DF91CF911F910F91EA
:101A1000FF90EF90DF90CF90BF90AF909F908F900E
:101A200008952F923F924F925F926F927F928F9282
:101A30009F92AF92BF92CF92DF92EF92FF920F935D
:101A40001F93CF93DF93CDB7DEB72C970FB6F894E3
:101A5000DEBF0FBECDBF3C014B015A016901280119
:101A600017011C861B861A86198618861F821E82FD
:101A70001D821C821B821A821982CE0101967C0172
:101A80008E010D5F1F4F9E012B5F3F4FAE01495FDF
:101A90005F4FBE01675F7F4F0A960E94B90C6B854E
:101AA0007C85882777FD8095982F0E942A1920E051
:101AB00030E040E858E30E940E1AF301608371831E
:101AC0008283938369857A85882777FD8095982F0F
:101AD0000E942A1920E030E040E858E30E940E1AE4
:101AE000F40160837183828393836F817885882773
:101AF00077FD8095982F0E942A1920E030E040E879
:101B000058E30E940E1AF5016083718382839383E8
:101B10006D817E81665D7F4F882777FD8095982F48
:101B20000E942A1923E333E343E851E40E94C018DA
:101B3000F60160837183828393836B817C8169501A
:101B40007109882777FD8095982F0E942A1923E331
:101B500033E343E851E40E94C018F20160837183CB
:101B60008283938369817A81635E7F4F882777FDC3
:101B70008095982F0E942A1923E333E343E851E428
:101B80000E94C018F10160837183828393832C9635
:101B90000FB6F894DEBF0FBECDBFDF91CF911F917E
:101BA0000F91FF90EF90DF90CF90BF90AF909F90FC
:101BB0008F907F906F905F904F903F902F900895FF
:101BC000E89A41E067E08AE60C94E509E89840E08D
:101BD00067E08AE60C94E509CF92DF92EF920F93CB
:101BE0001F93CF93DF93CDB7DEB7C059D1090FB69E
:101BF000F894DEBF0FBECDBF8091690083608093F3
:101C0000690041E067E08BE60E94E5098FE59AEE06
:101C10000197F1F700C000000E946E0C40E060E008
:101C200080E00E944E0A0E943E0CD82E0E944E0C6C
:101C3000182F0E945E0C6FE785E20E94360940E093
:101C400065E08AE60E94E50968E685E20E943609B9
:101C500041E061E08AE60E94E5098FE39CE9019793
:101C6000F1F700C00000EE24E39401E020E040E042
:101C700069E877E081EC91E00E94B30A813009F0D5
:101C800002C241E060EC70E081E091E00E94720BE2
:101C9000882309F4FAC123E043E062E08BE60E9466
:101CA000E10962E188E30E94360964E089E10E946B
:101CB000360921E043E065E08AE10E94E10923E082
:101CC00043E062E08AE10E94E10923E042E064E04F
:101CD0008BE10E94E10963E080E70E94360960E041
:101CE00081E70E94360940E060E080E00E94E5095B
:101CF0008D2D0E94480C812F0E94580C8AE50E946D
:101D0000680C40E050E061E083E10E94100A40E08E
:101D100050E061E085E10E94100A40E050E061E09F
:101D200087E10E94100AC12CD12CF601EE52FF4F20
:101D3000E491A1E8B0E0AC0FBD1FAC0DB11DEC9378
:101D400081E08C0D9FEFC91AD90A93E09C1568F7C2
:101D5000CD57DF4F6881C358D04070E09B012E5FA4
:101D60003F4F90E02817390704F7E12C01E0CE57E8
:101D7000DF4F2881C258D040CF57DF4F4881C1582C
:101D8000D04081E890E08C0F9D1F03960E94B30A1B
:101D900040E0F601EE52FF4FE491A1E8B0E0AC0F55
:101DA000BD1FA40FB11DEC934F5F8FEFC81AD80A67
:101DB000443078F3CD57DF4F6881C358D04070E08E
:101DC0009B012E5F3F4F842F90E0281739070CF7B7
:101DD000E12C01E0CE57DF4F2881C258D040CF57C9
:101DE000DF4F4881C158D04081E890E08C0F9D1FA3
:101DF00003960E94B30A21E041E062E08AE60E9475
:101E0000E1090E94200CAE014F5F5F4F682F84E70D
:101E10000E94290962E08FE10E9436096CE981E2A3
:101E20000E94360960E580E20E94360960E082E2A5
:101E30000E94360941E062E08AE60E94E50941E03D
:101E400066E08AE60E94E5090E94E00D41E063E059
:101E50008AE60E94E5090E94200C182F8330D8F3EF
:101E600040E0F601EE52FF4FE491A1E8B0E0AC0F84
:101E7000BD1FA40FB11DEC934F5F9FEFC91AD90A84
:101E8000443078F3CD57DF4F6881C358D04070E0BD
:101E90009B012E5F3F4F842F90E0281739070CF7E6
:101EA000E12C01E0CE57DF4F2881C258D040CF57F8
:101EB000DF4F4881C158D04081E890E08C0F9D1FD2
:101EC00003960E94B30A40E0F601EE52FF4FE49100
:101ED000A1E8B0E0AC0FBD1FA40FB11DEC934F5FA4
:101EE0008FEFC81AD80A443078F3CD57DF4F688196
:101EF000C358D04070E09B012E5F3F4F842F90E08D
:101F0000281739070CF7E12C01E0CE57DF4F288165
:101F1000C258D040CF57DF4F4881C158D04081E8E8
:101F200090E08C0F9D1F03960E94B30A80E0F6019B
:101F3000EE52FF4FE491A1E8B0E0AC0FBD1FA80F37
:101F4000B11DEC938F5F9FEFC91AD90A843078F3E3
:101F5000CD57DF4F6881C358D04070E0AB014E5F72
:101F60005F4F282F30E0421753070CF7E12C01E0B8
:101F7000CE57DF4F2881C258D040CF57DF4F48811E
:101F8000C158D04081E890E08C0F9D1F03960E94BD
:101F9000B30A612FCE0101960E942D0C40E0F6019C
:101FA000EE52FF4FE491A1E8B0E0AC0FBD1FA40FCB
:101FB000B11DEC934F5F8FEFC81AD80A443078F305
:101FC000CD57DF4F6881C358D04070E09B012E5F32
:101FD0003F4F842F90E0281739070CF7CE57DF4F7B
:101FE0002881C258D040CF57DF4F4881C158D040D8
:101FF00081E890E08C0F9D1F03960E945B0A0E946F
:10200000200C8330E0F3682FCE0101960E942D0C46
:10201000F601EE52FF4F40E08491A1E8B0E0AC0F32
:10202000BD1FA40FB11D8C934F5F443010F4319647
:10203000F3CFCD57DF4F6881C358D04070E09B018C
:102040002E5F3F4F842F90E02817390784F7E12C4B
:1020500001E0CE57DF4F2881C258D040CF57DF4F25
:102060004881C158D04081E890E08C0F9D1F0396B5
:102070000E94B30A0E94E60D41E062E08AE60E94F7
:10208000E50980E003C081E001C082E0C057DF4F76
:102090000FB6F894DEBF0FBECDBFDF91CF911F9179
:1020A0000F91EF90DF90CF900895AF92BF92CF92B3
:1020B000DF92EF92FF920F931F93CF93DF93EC0188
:1020C0005B016A017901009721F4C0915403D0911A
:1020D0005503688170E0762F66278981680F711D2E
:1020E000882777FD8095982F0E942A1920E030E0FC
:1020F00040E858E30E940E1AF501608371838283E1
:1021000093836C8170E0762F66278D81680F711D37
:10211000882777FD8095982F0E942A1920E030E0CB
:1021200040E858E30E940E1AF601608371838283AF
:102130009383688570E0762F66278985680F711D07
:10214000882777FD8095982F0E942A1920E030E09B
:1021500040E858E30E940E1AF7016083718382837E
:1021600093836C8570E0762F66278D85680F711DCF
:10217000882777FD8095982F0E942A1920E030E06B
:1021800040E858E30E940E1AF8016083718382834D
:102190009383DF91CF911F910F91FF90EF90DF908C
:1021A000CF90BF90AF9008954F925F926F927F92C1
:1021B0008F929F92AF92BF92CF92DF92EF92FF9257
:1021C0000F931F93CF93DF93CDB7DEB768970FB60A
:1021D000F894DEBF0FBECDBF2B013C0129833A83AB
:1021E0004B835C83ED82FE820F8318879B01AC01D9
:1021F0000E94E31769877A878B879C87A3019201E6
:102200000E940E1A6D877E878F87988B29813A816D
:102210004B815C81CA01B9010E94E3172B013C018B
:1022200029813A814B815C810E940E1A9B01AC018D
:102230006D857E858F8598890E94E31720E030E0C8
:1022400040E85FE30E94E217698B7A8B8B8B9C8B53
:102250002D813E814F815885C301B2010E940E1A23
:102260006D8B7E8B8F8B988FA601950169857A8502
:102270008B859C850E940E1A9B01AC016D897E891D
:102280008F89988D0E94E21729893A894B895C8948
:102290000E946D18EDA5FEA56083718382839383F0
:1022A000A6019501C301B2010E940E1A2B013C0147
:1022B0002D813E814F81588569857A858B859C85E6
:1022C0000E940E1A9B01AC01C301B2010E94E317E8
:1022D0000E944718DC01CB01B058EBA5FCA5808318
:1022E0009183A283B383A6019501C601B5010E9423
:1022F000E317A60195010E940E1A9B01AC016D85A2
:102300007E858F8598890E94E31720E030E040E8C1
:102310005FE30E94E2176D877E878F87988B2D8100
:102320003E814F815885CA01B9010E94E317A60179
:1023300095010E940E1A2B013C0129813A814B81A3
:102340005C8169857A858B859C850E940E1A9B012C
:10235000AC01C301B2010E94E2172D853E854F8575
:1023600058890E946D18F40160837183828393837E
:1023700068960FB6F894DEBF0FBECDBFDF91CF9148
:102380001F910F91FF90EF90DF90CF90BF90AF9093
:102390009F908F907F906F905F904F900895CF9215
:1023A000DF92EF92FF920F931F93CF93DF93EC0195
:1023B0007B016A01890180912D0390912E03209168
:1023C0002F03211103C08A329105C8F310922F0305
:1023D0000E94310C80932C030E94200C90932E03BA
:1023E00080932D0320912C0324FD03C0811594407C
:1023F00019F40E94390C26C021FF24C080912D03BE
:1024000090912E038A9738F40E94200C90932E030B
:1024100080932D03F3CF6AE286E593E00E942D0CB2
:10242000E0912D03F0912E03BA97F0932E03E093E1
:102430002D039601A701BE0186E593E00E94551089
:1024400081E001C080E0DF91CF911F910F91FF905B
:10245000EF90DF90CF9008951F920F920FB60F92DA
:1024600011248F9381E080932F038F910F900FBEE3
:102470000F901F90189529988F710E94BE158FEFAD
:102480000E94BE15299A0895EF92FF920F931F9311
:10249000CF93DF9300D0CDB7DEB7142F29988F717B
:1024A00069837A830E94BE156981062FE62E7A81A0
:1024B000F72E8E2D801B811738F48FEF0E94BE15EA
:1024C000F70181937F01F5CF299A0F900F90DF914B
:1024D000CF911F910F91FF90EF900895CF93DF93CD
:1024E0001F92CDB7DEB729988F71806269830E94F1
:1024F000BE156981862F0E94BE15299A0F90DF9123
:10250000CF910895EF92FF920F931F93CF93DF9394
:1025100000D0CDB7DEB7142F29988F718062698300
:102520007A830E94BE156981062FE62E7A81F72EE6
:102530008E2D801B811730F4F70181917F010E945D
:10254000BE15F6CF299A0F900F90DF91CF911F9172
:102550000F91FF90EF90089520E030E00496FB018A
:10256000E20FF31FDC01A21BB30B4C9140832F5FE2
:102570003F4F2530310599F70895CF93DF9300D071
:1025800000D01F92CDB7DEB7282FCB01211113C089
:1025900025E0FB01A1E2B1E001900D922A95E1F75F
:1025A000BE016F5F7F4F0E94AC1245E0BE016F5FBE
:1025B0007F4F8AE014C02130A9F425E0FB01ACE193
:1025C000B1E001900D922A95E1F7BE016F5F7F4F58
:1025D0000E94AC1245E0BE016F5F7F4F8BE00E940E
:1025E000821238C0223061F425E0FB01A7E1B1E09E
:1025F00001900D922A95E1F7FB0164818CE028C0DF
:10260000233061F425E0FB01A2E1B1E001900D92DD
:102610002A95E1F7FB0164818DE01AC0243061F452
:1026200025E0FB01ADE0B1E001900D922A95E1F7C4
:10263000FB0164818EE00CC0253061F4FB01A8E051
:10264000B1E001900D922A95E1F7FB0164818FE0E2
:102650000E946E120F900F900F900F900F90DF91CD
:10266000CF910895CF93DF9300D000D01F92CDB7C4
:10267000DEB725E0FC01A3E0B1E001900D922A95C0
:10268000E1F7BE016F5F7F4F0E94AC1245E0BE01D3
:102690006F5F7F4F8AE00E94821245E0BE016F5F4C
:1026A0007F4F80E10E9482120F900F900F900F9049
:1026B0000F90DF91CF910895299882EE0E94BE1568
:1026C000299A0895299881EE0E94BE15299A0895A5
:1026D00061E271E080E00E94BD1280E00E943B1246
:1026E000682F616080E00E946E1280E00E943B12C1
:1026F000682F626080E00E946E1260E787E00E94AF
:102700006E120E945C130E946213289A8BE291E081
:102710000197F1F700C000000895289880E00E941A
:102720003B12682F6E7F80E00E946E1280E00E9454
:102730003B12682F626080E00E946E1260E787E0C3
:102740000E946E120E9462138BE291E00197F1F7F2
:1027500000C00000089529988FEF0E94BE15299AA5
:102760000895EF92FF920F931F93CF93DF93CDB70E
:10277000DEB7C456D1090FB6F894DEBF0FBECDBF89
:102780007C018DE692E0F70109950E94AB131F9240
:102790008F9384E792E09F938F938E010F5F1F4F7B
:1027A0001F930F930E94D21CC801F701099580E086
:1027B0000E943B121F928F9383E892E09F938F9326
:1027C0001F930F930E94D21CC801F701099585E061
:1027D0000E943B121F928F9382E992E09F938F9306
:1027E0001F930F930E94D21CC801F701099586E040
:1027F0000E943B121F928F9380EA92E09F938F93E7
:102800001F930F930E94D21CC801F701099581E024
:102810000E943B121F928F9381EB92E09F938F93C4
:102820001F930F930E94D21CC801F701099582E003
:102830000E943B121F928F938FEB92E09F938F9396
:102840001F930F930E94D21C0FB6F894DEBF0FBEE9
:10285000CDBFC801F701099588E00E943B121F9285
:102860008F9381ED92E09F938F931F930F930E941C
:10287000D21CC801F70109958CEB92E0F70109958C
:102880000F900F900F900F900F900F90CC59DF4F3B
:102890000FB6F894DEBF0FBECDBFDF91CF911F9171
:1028A0000F91FF90EF900895CF93DF93EC010E947A
:1028B000AB13982F807496FF05C0209719F096955A
:1028C00097709883DF91CF910895EF92FF921F93B5
:1028D000CF93DF931F92CDB7DEB7182F299881E6EB
:1028E00099830E94BE15E12E9981F92E10E28FEF97
:1028F0000E94BE15F70181937F011150C1F7299AFB
:1029000060E487E00E946E120E94AB1385FF0AC04C
:1029100060E287E00F90DF91CF911F91FF90EF90E1
:102920000C946E120F90DF91CF911F91FF90EF905A
:102930000895EF92FF921F93CF93DF931F92CDB72D
:10294000DEB7182F99830E948D13299880EA0E9480
:10295000BE15E12E9981F92E10E2F70181917F01D8
:102960000E94BE151150C9F7299A289AF8E2FA95E3
:10297000F1F728988AE18A95F1F700C00E94AB131D
:102980008073C1F30E94AB13182F6CE485E00E94A2
:102990006E1280E00E943B12682F6D7F80E00E94E3
:1029A0006E120E94681315FB882780F90F90DF9143
:1029B000CF911F91FF90EF90089586E00E943B1207
:1029C000682F666086E00C946E1286E00E943B12CF
:1029D000682F677D86E00C946E1280E00E943B12A7
:1029E000682F6C6080E00C946E12219A209A0E94ED
:1029F000B3152898299A8FE097E20197F1F700C064
:102A000000000E94DD140E94E5140E94ED1467E4AA
:102A100084E00E946E1260E08CE10E946E126CE411
:102A200085E00E946E1260E281E10E946E1260E217
:102A300082E10E946E1260E283E10E946E1260E207
:102A400084E10E946E1260E285E10E946E1260E2F3
:102A500086E10E946E1260E082E00E946E1282E0C7
:102A60000E943B12682F616082E00E946E1282E039
:102A70000E943B12682F626082E00E946E1282E028
:102A80000E943B12682F646082E00E946E1282E016
:102A90000E943B12682F686082E00E946E1282E002
:102AA0000E943B12682F606182E00E946E1282E0F9
:102AB0000E943B12682F606282E00E946E1281E0E9
:102AC0000E943B12682F616081E00E946E1281E0DB
:102AD0000E943B12682F626081E00E946E1281E0CA
:102AE0000E943B12682F646081E00E946E1281E0B8
:102AF0000E943B12682F686081E00E946E1281E0A4
:102B00000E943B12682F606181E00E946E1281E09A
:102B10000E943B12682F606281E00E946E1261E2A7
:102B200071E080E00E94BD126CE171E081E00E94E2
:102B3000BD1267E171E082E00E94BD1262E171E0C6
:102B400083E00E94BD126DE071E084E00E94BD123E
:102B500068E071E085E00E94BD1283E091E00E9490
:102B600032130C94681384B1837C84B984B18C6271
:102B700084B981E58CBD81E08DBD08958EBD0DB415
:102B800007FEFDCF8EB50895FC019F012F5F3F4FDB
:102B9000E081F0E0E359FE4F4081403410F4F90148
:102BA000F4CF281B390BC901029697FD03969C01AF
:102BB0003595279535952795C901880F991F820F5F
:102BC000931F019608950F931F93CF93DF93FB01FB
:102BD000DB01BD016F5F7F4FAC91B0E0A359BE4FE9
:102BE0002C91203410F4DB01F4CF6E1B7F0B9B0182
:102BF00021503109AB014E5F5F4F57FF02C04D5F5F
:102C00005F4FBA017595679575956795AB01440F50
:102C1000551F460F571F8C01D80125303105F4F19F
:102C2000A081B0E0A359BE4F8C9164E0869FC001A3
:102C30001124A181B0E0A359BE4F9C9192959F7041
:102C4000982BD8019C93A181B0E0A359BE4F8C91E1
:102C5000B0E18B9FC0011124A281B0E0A359BE4F07
:102C60009C9196959695982BE8019983A281B0E066
:102C7000A359BE4F8C91D0E48D9FC0011124A38134
:102C8000B0E0A359BE4F9C91982BD80112969C930B
:102C90003496245031090D5F1F4FBECF22303105CD
:102CA0000CF447C0808190E083599E4FEC0168810D
:102CB000D4E06D9FB0011124818190E083599E4F33
:102CC000EC01888182958F70862B8C9322303105A0
:102CD00011F411962EC0818190E083599E4FEC0132
:102CE0006881D0E16D9FB0011124828190E0835909
:102CF0009E4FEC01888186958695862B11968C9344
:102D000011972430310511F0129613C01396828169
:102D100090E083599E4FEC018881D0E48D9FC001E3
:102D20001124E381F0E0E359FE4F9081982BF801E4
:102D300092831C9231952195310923703327CA0162
:102D4000821B930BDF91CF911F910F9108950296F3
:102D500063E070E00E94C217660F771F660F771F4F
:102D6000CB01019608958F929F92AF92BF92CF921E
:102D7000DF92EF92FF920F931F93CF93DF93FC01AB
:102D80008B014B0122E0820E911C20E030E05A01C1
:102D9000A2E0AA1AB108DF012A153B050CF055C0C4
:102DA000D801CC91C695C695AC2FBB27A7FDB09591
:102DB000A45DBE4FAC91A083D401CE917D01AC2F18
:102DC000BB27A7FDB095A07FBB27C4E0B595A7950D
:102DD000CA95E1F7E801C880DC2DD370C0E1DC9F23
:102DE00060011124AC29BD29A45DBE4FAC91A18323
:102DF000E701A881AF70D4E0AD9FD0011124E401B8
:102E0000E880FF24E7FCF094D0ECED22FF24D6E02C
:102E1000F594E794DA95E1F7AE29BF29A45DBE4F9A
:102E2000AC91A283E401A881AF73BB27A7FDB09545
:102E3000A45DBE4FAC91A3832D5F3F4F34960D5FD1
:102E40001F4FD3E08D0E911CA6CF241735070CF031
:102E50004CC0EB01C20FD31FA881A695A695BB2736
:102E6000A7FDB095A45DBE4FAC91A0834150510920
:102E7000F8808F010D5F1F4F2417350761F4AF2DC8
:102E8000A37020E1A29FD0011124A45DBE4F2C911C
:102E900021832DE324C0E9012196C60FD71FA88105
:102EA000BB27A7FDB095A07FBB2724E0B595A795CC
:102EB0002A95E1F72F2D237040E1249F90011124E2
:102EC000A22BB32BA45DBE4F2C912183A881AF70A0
:102ED000C4E0AC9FD0011124A45DBE4F2C9122838D
:102EE000D80111962DE3F8012083FD0111929F0175
:102EF000281B390BC901DF91CF911F910F91FF90D2
:102F0000EF90DF90CF90BF90AF909F908F900895FB
:102F10000E94D20586E190E00E94A7168091B4003D
:102F20008F5F8093B40088B58F5F88BD87B58F5F52
:102F300087BD83EC99E00197F1F700C00000EECF68
:102F400087FB082E062687FD819567FD61950E9407
:102F5000D6170EF4919507FC81950895AA1BBB1B0B
:102F600051E107C0AA1FBB1FA617B70710F0A61B89
:102F7000B70B881F991F5A95A9F780959095BC01AA
:102F8000CD01089597FB072E16F4009407D077FD26
:102F900009D00E94AE1707FC05D03EF490958195AC
:102FA0009F4F0895709561957F4F0895991B79E023
:102FB00004C0991F961708F0961B881F7A95C9F7C9
:102FC000809508955058BB27AA270ED0E6C1D7D1C7
:102FD00030F0DCD120F031F49F3F11F41EF496C1A3
:102FE0000EF4E095E7FB8CC1E92FE8D180F3BA1726
:102FF000620773078407950718F071F49EF500C205
:103000000EF4E0950B2EBA2FA02D0B01B901900103
:103010000C01CA01A0011124FF27591B99F0593F47
:1030200050F4503E68F11A16F040A22F232F342F8F
:103030004427585FF3CF469537952795A795F040DD
:103040005395C9F77EF41F16BA0B620B730B840BF2
:10305000BAF09150A1F0FF0FBB1F661F771F881FAA
:10306000C2F70EC0BA0F621F731F841F48F4879502
:1030700077956795B795F7959E3F08F0B3CF9395F1
:10308000880F08F09927EE0F9795879508959F93DD
:103090009F77EEE389379E0720F4E8E6F0E05ED103
:1030A00009C013D19058A2EA2AED3FE049EC5FE352
:1030B0009BDF73D10F9007FC9058089560D158F0B2
:1030C00080E891E009F49EEF61D128F040E851E0FA
:1030D00059F45EEF09C01AC193C1E92FE0786ED1AF
:1030E00068F3092E052AC1F3261737074807590741
:1030F00038F00E2E07F8E02569F0E025E0640AC0FC
:10310000EF6307F8009407FADB01B9019D01DC01C8
:10311000CA01AD01EF9343D040D10AD05F9155234E
:1031200031F02BED3FE049E450FD49EC4CCF0895E0
:10313000DF93DD27B92FBF7740E85FE31616170648
:1031400048075B0710F4D92F62D19F938F937F9329
:103150006F9309D2ECE7F0E0DCD01FD12F913F91C3
:103160004F915F9167D1DD2349F09058A2EA2AED93
:103170003FE049EC5FE3D0785D2736DFDF910DC19A
:103180000CD00BC103D140F0FAD030F021F45F3FF6
:1031900019F0B6C0511135C1B9C010D198F39923B7
:1031A000C9F35523B1F3951B550BBB27AA2762170B
:1031B0007307840738F09F5F5F4F220F331F441F50
:1031C000AA1FA9F333D00E2E3AF0E0E830D0915088
:1031D0005040E695001CCAF729D0FE2F27D0660F75
:1031E000771F881FBB1F261737074807AB07B0E8B4
:1031F00009F0BB0B802DBF01FF2793585F4F2AF0CA
:103200009E3F510568F07CC0FCC05F3FECF3983EE8
:10321000DCF3869577956795B795F7959F5FC9F726
:10322000880F911D9695879597F90895E1E0660FAF
:10323000771F881FBB1F621773078407BA0720F028
:10324000621B730B840BBA0BEE1F88F7E095089591
:10325000E89409C097FB3EF4909580957095619530
:103260007F4F8F4F9F4F9923A9F0F92F96E9BB27E6
:103270009395F695879577956795B795F111F8CF62
:10328000FAF4BB0F11F460FF1BC06F5F7F4F8F4FCD
:103290009F4F16C0882311F096E911C0772321F0C3
:1032A0009EE8872F762F05C0662371F096E8862F5B
:1032B00070E060E02AF09A95660F771F881FDAF7B2
:1032C000880F9695879597F90895DF93CF931F936D
:1032D0000F938B01EC01E9EAF0E01BD05ED098017E
:1032E000AE018B01EC0160E070E080E89FE36ADEF4
:1032F000FCD09801AE010F911F91CF91DF919AC040
:1033000097F99F6780E870E060E008959FEF80EC98
:103310000895DF93CF931F930F93FF92EF92DF9265
:103320007B018C01689405C0DA2EEF0183D0FE0189
:10333000E894A5912591359145915591AEF3EF0112
:1033400053DEFE019701A801DA9479F7DF90EF9040
:10335000FF900F911F91CF91DF9108959F938F93CD
:103360007F936F93FF93EF939B01AC0157D0EF9145
:10337000FF91CFDF2F913F914F915F914FC000247C
:103380000A941616170618060906089500240A94CA
:1033900012161306140605060895092E0394000C50
:1033A00011F4882352F0BB0F40F4BF2B11F460FFDF
:1033B00004C06F5F7F4F8F4F9F4F089557FD905808
:1033C000440F551F59F05F3F71F04795880F97FBE9
:1033D000991F61F09F3F79F08795089512161306A3
:1033E0001406551FF2CF4695F1DF08C016161706D2
:1033F0001806991FF1CF8695710561050894089507
:10340000E894BB2766277727CB0197F908959B019E
:10341000AC0160E070E080E89FE3B2CE0BD0BDCF9E
:10342000AEDF28F0B3DF18F0952309F069CF6ECF37
:103430001124E7CFC3DFA0F3959FD1F3950F50E0A0
:10344000551F629FF001729FBB27F00DB11D639F56
:10345000AA27F00DB11DAA1F649F6627B00DA11DFC
:10346000661F829F2227B00DA11D621F739FB00DA2
:10347000A11D621F839FA00D611D221F749F332712
:10348000A00D611D231F849F600D211D822F762FAB
:103490006A2F11249F5750408AF0E1F088234AF0A8
:1034A000EE0FFF1FBB1F661F771F881F91505040F4
:1034B000A9F79E3F510570F023CFA3CF5F3FECF3F8
:1034C000983EDCF3869577956795B795F795E795E0
:1034D0009F5FC1F7FE2B880F911D9695879597F9F1
:1034E000089511F40EF412CF41C070DFD0F3992388
:1034F000D9F3CEF39F57550B87FF46D00024A0E6A3
:1035000040EA900180585695979528F4805C660FA4
:10351000771F881F20F026173707480730F4621BF3
:10352000730B840B202931294A2BA69517940794F5
:10353000202531254A2758F7660F771F881F20F06E
:1035400026173707480730F4620B730B840B200DE6
:10355000311D411DA09581F7B901842F9158880F25
:103560009695879508959B01AC0158CF9F3F31F008
:10357000915020F4879577956795B795880F911DA1
:103580009695879597F9089591505040660F771F4B
:10359000881FD2F70895CF93DF938230910510F4FE
:1035A00082E090E0E0919803F091990320E030E010
:1035B000A0E0B0E0309739F14081518148175907B8
:1035C000B8F04817590771F482819381109729F058
:1035D00013969C938E9312972CC09093990380938B
:1035E000980327C02115310531F04217530718F011
:1035F000A901DB0101C0EF019A01BD01DF010280D9
:10360000F381E02DD7CF21153105F9F0281B390BB7
:103610002430310580F48A819B816115710521F088
:10362000FB019383828304C0909399038093980352
:10363000FE01329644C0FE01E20FF31F8193919385
:1036400022503109398328833AC020919603309162
:103650009703232B41F420912801309129013093C5
:10366000970320939603209126013091270121157D
:10367000310541F42DB73EB740912A0150912B01FD
:10368000241B350BE0919603F0919703E217F307A3
:10369000A0F42E1B3F0B2817390778F0AC014E5FC2
:1036A0005F4F2417350748F04E0F5F1F5093970365
:1036B000409396038193919302C0E0E0F0E0CF0144
:1036C000DF91CF910895CF93DF93009709F487C0DE
:1036D000FC01329713821282C0919803D091990312
:1036E000209781F420813181280F391F8091960322
:1036F000909197038217930779F5F0939703E093DE
:1037000096036DC0DE0120E030E0AE17BF0750F435
:1037100012964D915C9113979D014115510509F148
:10372000DA01F3CFB383A28340815181840F951FC7
:103730008A179B0771F48D919C911197840F951FA7
:1037400002969183808312968D919C911397938317
:1037500082832115310529F4F0939903E0939803AE
:103760003EC0D9011396FC93EE9312974D915D9153
:10377000A40FB51FEA17FB0779F480819181840FAC
:10378000951F0296D90111969C938E938281938105
:1037900013969C938E931297E0E0F0E08A819B81D0
:1037A000009719F0FE01EC01F9CFCE0102962881B5
:1037B0003981820F931F2091960330919703281728
:1037C000390769F4309729F41092990310929803FD
:1037D00002C013821282D0939703C0939603DF91A5
:1037E000CF910895A0E0B0E0E8EFFBE10C94701FEA
:1037F000EC01CB01209719F40E94CB1AB8C0FE014E
:10380000E60FF71F9E0122503109E217F30708F473
:10381000ACC0D9010D911C91119706171707B8F08C
:103820000530110508F49FC0A801445051094617FE
:10383000570708F498C002501109061B170B019393
:1038400011936D937C93CF010E94631B8CC05B012D
:10385000A01AB10A4E01800E911EA0919803B0915A
:103860009903612C712C60E070E0109709F449C055
:10387000A815B905C9F5ED90FC901197670142E0D4
:10388000C40ED11CCA14DB0478F147018A189B08C6
:10389000640142E0C40ED11C1296BC90129713969C
:1038A000AC91B5E0CB16D10440F0B282A3839182F3
:1038B0008082D9018D939C9309C00E5F1F4F0E0D1E
:1038C0001F1DF90111830083EB2DFA2F611571057E
:1038D00031F0DB011396FC93EE93129744C0F09302
:1038E0009903E09398033FC06D917C911197661600
:1038F000770608F43B01BD0112960D90BC91A02DF6
:10390000B4CF609196037091970368157905E9F437
:1039100068167906D0F4409126015091270141158F
:10392000510541F44DB75EB760912A0170912B01AA
:10393000461B570BE417F507C0F4F0939703E09389
:103940009603F901918380830EC00E94CB1A7C01FB
:10395000009759F0A801BE010E94C91CCE010E9427
:10396000631BC70104C0CE0102C080E090E0CDB768
:10397000DEB7EEE00C948C1FFB01DC0104C08D91DE
:103980000190801921F441505040C8F7881B990BD1
:103990000895FB01DC0102C001900D92415050409E
:1039A000D8F70895AEE0B0E0E8EDFCE10C947A1FA2
:1039B0000D891E8986E08C831A8309838FEF9FE728
:1039C0009E838D83AE01475E5F4F6F89788DCE01F8
:1039D00001960E94F41CEF81F885E00FF11F108220
:1039E0002E96E4E00C94961FACE0B0E0EAEFFCE128
:1039F0000C946C1F7C016B018A01FC0117821682FA
:103A0000838181FFBDC1CE0101964C01F7019381F5
:103A1000F60193FD859193FF81916F01882309F44D
:103A2000ABC1853239F493FD859193FF81916F018C
:103A3000853229F4B70190E00E94DC1EE7CF512CBB
:103A4000312C20E02032A0F48B3269F030F4803247
:103A500059F0833269F420612CC08D3239F0803303
:103A600039F4216026C02260246023C0286021C070
:103A700027FD27C030ED380F3A3078F426FF06C016
:103A8000FAE05F9E300D1124532E13C08AE0389E59
:103A9000300D1124332E20620CC08E3221F426FD0D
:103AA0006BC1206406C08C3611F4206802C08836D1
:103AB00041F4F60193FD859193FF81916F0181118E
:103AC000C1CF982F9F7D9554933028F40C5F1F4FE2
:103AD000FFE3F9830DC0833631F0833771F083350E
:103AE00009F05BC022C0F801808189830E5F1F4FFF
:103AF00044244394512C540115C03801F2E06F0E58
:103B0000711CF801A080B18026FF03C0652D70E014
:103B100002C06FEF7FEFC5012C870E94D11E2C01E0
:103B200083012C852F77222E17C03801F2E06F0E0B
:103B3000711CF801A080B18026FF03C0652D70E0E4
:103B400002C06FEF7FEFC5012C870E94C61E2C01BB
:103B50002C852068222E830123FC1BC0832D90E03E
:103B600048165906B0F4B70180E290E00E94DC1ECE
:103B70003A94F4CFF50127FC859127FE81915F01EE
:103B8000B70190E00E94DC1E31103A94F1E04F1A28
:103B900051084114510471F7E5C0843611F089369B
:103BA00039F5F80127FF07C0608171818281938117
:103BB0000C5F1F4F08C060817181882777FD809559
:103BC000982F0E5F1F4F2F76B22E97FF09C090954A
:103BD0008095709561957F4F8F4F9F4F2068B22ED3
:103BE0002AE030E0A4010E940E1FA82EA81844C0AD
:103BF000853729F42F7EB22E2AE030E025C0F22F3F
:103C0000F97FBF2E8F36C1F018F4883579F0B4C033
:103C1000803719F0883721F0AFC02F2F2061B22EE6
:103C2000B4FE0DC08B2D8460B82E09C024FF0AC0DD
:103C30009F2F9660B92E06C028E030E005C020E135
:103C400030E002C020E132E0F801B7FE07C0608139
:103C50007181828193810C5F1F4F06C060817181E9
:103C600080E090E00E5F1F4FA4010E940E1FA82E5F
:103C7000A818FB2DFF77BF2EB6FE0BC02B2D2E7F75
:103C8000A51450F4B4FE0AC0B2FC08C02B2D2E7E41
:103C900005C07A2C2B2D03C07A2C01C0752C24FF73
:103CA0000DC0FE01EA0DF11D8081803311F4297EE3
:103CB00009C022FF06C07394739404C0822F8678D3
:103CC00009F0739423FD13C020FF06C05A2C73140F
:103CD00018F4530C5718732C731468F4B70180E26E
:103CE00090E02C870E94DC1E73942C85F5CF731412
:103CF00010F4371801C0312C24FF12C0B70180E343
:103D000090E02C870E94DC1E2C8522FF17C021FF2B
:103D100003C088E590E002C088E790E0B7010CC0DE
:103D2000822F867859F021FD02C080E201C08BE22B
:103D300027FD8DE2B70190E00E94DC1EA51438F447
:103D4000B70180E390E00E94DC1E5A94F7CFAA945A
:103D5000F401EA0DF11D8081B70190E00E94DC1EA4
:103D6000A110F5CF332009F451CEB70180E290E0E5
:103D70000E94DC1E3A94F6CFF7018681978102C03B
:103D80008FEF9FEF2C96E2E10C94881FFC010590C9
:103D9000615070400110D8F7809590958E0F9F1F4D
:103DA0000895FC016150704001900110D8F7809592
:103DB00090958E0F9F1F08950F931F93CF93DF93BE
:103DC000182F092FEB018B8181FD03C08FEF9FEF2F
:103DD00020C082FF10C04E815F812C813D8142173F
:103DE00053077CF4E881F9819F012F5F3F4F3983AE
:103DF0002883108306C0E885F985812F0995892BD2
:103E000029F72E813F812F5F3F4F3F832E83812FE4
:103E1000902FDF91CF911F910F910895FA01AA275A
:103E2000283051F1203181F1E8946F936E7F6E5FFD
:103E30007F4F8F4F9F4FAF4FB1E03ED0B4E03CD0AB
:103E4000670F781F891F9A1FA11D680F791F8A1F8E
:103E5000911DA11D6A0F711D811D911DA11D20D0F5
:103E600009F468943F912AE0269F11243019305DAF
:103E70003193DEF6CF010895462F4770405D4193A0
:103E8000B3E00FD0C9F7F6CF462F4F70405D4A33ED
:103E900018F0495D31FD4052419302D0A9F7EACFB5
:103EA000B4E0A6959795879577956795BA95C9F7E4
:103EB00000976105710508959B01AC010A2E0694D7
:103EC0005795479537952795BA95C9F7620F731F90
:103ED000841F951FA01D08952F923F924F925F92CD
:103EE0006F927F928F929F92AF92BF92CF92DF920A
:103EF000EF92FF920F931F93CF93DF93CDB7DEB76F
:103F0000CA1BDB0B0FB6F894DEBF0FBECDBF099402
:103F10002A88398848885F846E847D848C849B8459
:103F2000AA84B984C884DF80EE80FD800C811B8167
:103F3000AA81B981CE0FD11D0FB6F894DEBF0FBE96
:0A3F4000CDBFED010895F894FFCF06
:103F4A00050402E8E8F0F0E2C1C2C2C2C6C1C2C2B8
:103F5A00C2C5C1C2C2C2C4C1C2C2C2C3C1C2C2C234
:103F6A00C2E8E8F0F0E200009A032000414243442C
:103F7A0045464748494A4B4C4D4E4F50515253546F
:103F8A0055565758595A6162636465666768696A23
:103F9A006B6C6D6E6F707172737475767778797AEF
:103FAA00303132333435363738392B2F00404040E0
:103FBA0040404040404040404040404040404040F7
:103FCA0040404040404040404040404040404040E7
:103FDA0040404040404040403E4040403F343536FB
:103FEA003738393A3B3C3D40404040404040000170
:103FFA0002030405060708090A0B0C0D0E0F10111F
:10400A0012131415161718194040404040401A1B45
:10401A001C1D1E1F202122232425262728292A2B5E
:10402A002C2D2E2F3031323340404040404040400A
:10403A004040404040404040404040404040404076
:10404A004040404040404040404040404040404066
:10405A004040404040404040404040404040404056
:10406A004040404040404040404040404040404046
:10407A004040404040404040404040404040404036
:10408A004040404040404040404040404040404026
:10409A004040404040404040404040404040404016
:1040AA0040404040404040404040404040696E6689
:1040BA006F0D0A005354415455533A202530325853
:1040CA000D0A00434F4E4649473A20253032580DD3
:1040DA000A0052465F43483A20253032580D0A00FA
:1040EA0052465F53455455503A20253032580D0AEE
:1040FA0000454E5F41413A20253032580D0A0045AD
:10410A004E5F5258414444523A20253032580D0AE3
:10411A00004F4253455256455F54583A2025303293
:04412A00580D0A0022
:00000001FF
