:100000000C943C000C9459000C9459000C94590029
:100010000C9459000C9459000C9459000C945900FC
:100020000C9459000C9459000C9459000C945900EC
:100030000C9459000C9459000C9459000C945900DC
:100040000C9459000C9459000C9459000C945900CC
:100050000C9459000C9459000C9459000C945900BC
:100060000C9459000C945900080A0D0E0F0E0D0A3D
:10007000080502010001020511241FBECFEFD8E0E0
:10008000DEBFCDBF11E0A0E0B1E0E0EDF2E002C0E4
:1000900005900D92A031B107D9F721E0A0E1B1E0C0
:1000A00001C01D92A432B207E1F70E9453010C94E3
:1000B00066010C9400008CE00E94180180E091E041
:1000C0000E94FD008FE084B908955E9A00C05E989A
:1000D00008951F93CF93DF931F92CDB7DEB76623AA
:1000E00011F05C9A01C05C985D989AB19F609AB9D2
:1000F0001BB1107F982F92959F70912B9BB989838C
:100100000E94650089818F70812B8BB90E946500E8
:100110001F601BB90F90DF91CF911F9108955C98DC
:100120005D9A8AB1807F8AB95E9A00C089B15E9873
:1001300000C05E9A00C099B19F708295807F5E98E2
:10014000892B0895CF93DF93C0E6DAEE0E948F00EB
:1001500087FF04C0209711F02197F8CF00C0CD2B66
:1001600021F0DF91CF910C948F008FEFDF91CF9131
:100170000895CF93C82F0E94A20060E08C2FCF91EA
:100180000C946900CF93C82F0E94A20061E08C2FCD
:10019000CF910C946900611102C0805801C0805455
:1001A0000C94B9000E94A20090E0089581E00C94A4
:1001B000B90082E00C94B900CF93C82F0E94A2002E
:1001C000CA3049F4803410F480E401C080E08058E3
:1001D000CF910C94B900803119F460E080EC04C038
:1001E000803521F460E080E80E9469000E94A2004E
:1001F00061E08C2FCF910C946900CF93DF93EC01D9
:100200008991882319F00E94DC00FACFDF91CF9109
:100210000895CF93DF93FC018491EF012196882309
:1002200021F00E94DC00FE01F7CFDF91CF9108950D
:10023000CF93C82F9AB19F679AB9E0EAFFE0319750
:10024000F1F7599A589A0E946500E0EEF4E0319770
:10025000F1F70E946500E0E1F0E03197F1F70E94CC
:100260006500E0E1F0E03197F1F758980E946500F1
:10027000E0E1F0E03197F1F788E20E94B9000E94D6
:10028000A2008F3F69F088E00E94B9000E94D6006A
:1002900086E00E94B9008C2F0E94B90080E001C066
:1002A0008FEFCF9108950E945B0080E0E82FF0E08F
:1002B000E859FF4FE491E5B9E9EFF0E03197F1F744
:1002C00000C000008F5F803188F3EFCFF894FFCF3C
:1002D000346269742073696E6520522D32520000B9
:00000001FF
