:100000000C9434000C9451000C9451000C94510049
:100010000C9451000C9451000C9451000C9451001C
:100020000C9451000C9451000C9451000C9451000C
:100030000C9451000C9451000C9451000C945100FC
:100040000C9451000C9451000C945A010C948801AA
:100050000C9451000C9451000C9451000C945100DC
:100060000C9451000C94510011241FBECFEFD8E026
:10007000DEBFCDBF11E0A0E0B1E0EEE4F4E002C0ED
:1000800005900D92A431B107D9F721E0A4E1B1E0C8
:1000900001C01D92AD36B207E1F70E9414020C9424
:1000A00025020C9400008CE00E94230180E091E086
:1000B0000E9408018CE090E00E94B20178940895BB
:1000C000289A00C028980895CF93DF931F92CDB748
:1000D000DEB7662311F02F9A01C02F982E98549AFC
:1000E000559A569A579A5F985E985D985C9887FDE6
:1000F0005F9A86FD5E9A85FD5D9A84FD5C9A898390
:100100000E9460005F985E985D985C98898183FD8D
:100110005F9A82FD5E9A81FD5D9A80FD5C9A0E94E5
:1001200060005C9A5D9A5E9A5F9A0F90DF91CF9122
:1001300008952F982E9A5498559856985798289A1B
:1001400000C04C9902C080E001C080E14D998062FE
:100150004E9980644F998068289800C0289A00C002
:100160004C9981604D9982604E9984604F99886066
:10017000289808950E94990087FDFCCF84E090E0C4
:100180000197F1F70C949900CF93C82F0E94BA0001
:1001900060E08C2FCF910C946400CF93C82F0E9405
:1001A000BA0061E08C2FCF910C946400611102C001
:1001B000805801C080540C94C4000E94BA0090E0A2
:1001C000089581E00C94C40082E00C94C400CF93A5
:1001D000C82F0E94BA00CA3049F4803410F480E479
:1001E00001C080E08058CF910C94C400803119F494
:1001F00060E080EC04C0803521F460E080E80E947B
:1002000064000E94BA0061E08C2FCF910C946400CE
:10021000CF93DF93EC018991882319F00E94E700C6
:10022000FACFDF91CF910895CF93DF93FC018491B2
:10023000EF012196882321F00E94E700FE01F7CF0D
:10024000DF91CF910895CF93C82F279A269A209AAD
:10025000549A559A569A579AE0E0FDE73197F1F78C
:100260005D9A5C9A0E946000E0E0F7E23197F1F756
:100270000E946000E0E8F0E03197F1F70E94600032
:10028000E0E8F0E03197F1F75C980E946000E0E868
:10029000F0E03197F1F788E20E94C40088E00E9404
:1002A000C4000E94E10086E00E94C4008C2FCF9120
:1002B0000C94C4001F920F920FB60F9211242F932B
:1002C0008F939F93EF93FF938091C0009091C6000E
:1002D0008871E0911601EF5FEF7120911501E2172F
:1002E00039F0E0931601F0E0E75EFE4F908301C025
:1002F00082E090911401982B90931401FF91EF915B
:100300009F918F912F910F900FBE0F901F90189576
:100310001F920F920FB60F9211248F939F93EF931A
:10032000FF939091180180911701981769F0E0915F
:100330001701EF5FEF71E0931701F0E0E75CFE4F0C
:1003400080818093C60005C08091C1008F7D80931D
:10035000C100FF91EF919F918F910F900FBE0F9071
:100360001F90189510921801109217011092160103
:100370001092150197FF04C022E02093C0009F77E0
:100380009093C5008093C40088E98093C10086E003
:100390008093C200089590911601809115019817DD
:1003A00081F0E0911501EF5FEF71E0931501F0E04E
:1003B000E75EFE4F8081909114011092140190E04D
:1003C000089580E091E00895909118019F5F9F71DA
:1003D000209117019217E1F3E92FF0E0E75CFE4F5F
:1003E0008083909318018091C10080628093C10046
:1003F0000895CF93DF93EC018991882319F00E942F
:10040000E401FACFDF91CF910895CF93DF93FC0100
:100410008491EF012196882321F00E94E401FE01DE
:10042000F7CFDF91CF9108950E9453008DE091E0C6
:100430000E94F9018DE091E00E94080187EA91E6AF
:0E0440000197F1F700C00000F1CFF894FFCF54
:10044E0054657374696E672055415254006173642C
:04045E006667680065
:00000001FF
