:100000000C9454000C9471000C9471000C947100C9
:100010000C9471000C9471000C9471000C9471009C
:100020000C9471000C9471000C9471000C9471008C
:100030000C9471000C9471000C9471000C9471007C
:100040000C9471000C9471000C9471000C9471006C
:100050000C9471000C9471000C9471000C9471005C
:100060000C9471000C9471000205080B0E1114170A
:100070001A1D202326292C2F3235383A3D4043457E
:10008000484A4D4F525456595B5D5F6163656769DD
:100090006A6C6E6F71727375767778797A7B7C7C17
:1000A0007D7D7E7E7F7F7F7F11241FBECFEFD8E0D6
:1000B000DEBFCDBF11E0A0E0B1E0EAEBF4E002C0AA
:1000C00005900D92AE30B107D9F723E0AEE0B1E074
:1000D00001C01D92AA31B207E1F70E942B010C94D6
:1000E0005B020C940000982F86FF0AC0E82FF0E016
:1000F000E095F095EF73FF27E859FF4F849106C014
:10010000E82FEF73F0E0E859FF4F849199230CF446
:1001100081950895805C0E94730008952A982C9818
:100120002D9898E0882314F42B9A01C02B982D9ACF
:100130002D98880F9150B1F72A9A08952A982C9AF1
:100140002D9898E0882314F42B9A01C02B982D9AAF
:100150002D98880F9150B1F72A9A0895CF93C62F02
:1001600080680E948E008C2F80640E948E00CF9148
:10017000089588EF91E0E2E2F1E0DF019C011D9239
:1001800021503040E1F708950F931F93CF93DF93F1
:1001900060E080E00E94AE00C2E2D1E00AE113E03C
:1001A00089910E949E00C017D107D1F760E080E0DE
:1001B0000E94AE00DF91CF911F910F9108950E9490
:1001C000B9000E94C400089584B18E6384B987EA9F
:1001D00091E60197F1F700C000002A98299887EA74
:1001E00091E60197F1F700C00000299A2A9A81E26E
:1001F0000E948E0089ED0E948E0084E00E948E0095
:1002000083E10E948E0080E20E948E008CE00E94BA
:100210008E000E94DF0008958435E0F46033D0F44E
:10022000962F969596959695E82FF0E024E5929F67
:10023000E00DF11D1124EE5DFE4F677081E090E04E
:100240009C0102C0220F331F6A95E2F7B901808139
:10025000682B608308950E94E4008CE087B90E94B7
:1002600021020E94EB0187EA91E60197F1F700C0B5
:10027000000060E080E00E94E10180E091E00E94E7
:100280001302C12CD12C1BE20F2EF8E1EF2EF02D22
:100290000E94DF00429A42980E94C400429A42980B
:1002A000439AE6018C2F0E947300082F8C2F0E9426
:1002B0008A008102912D112487FD93956E2D691B73
:1002C0000102812D112407FD8395865D0E940C019A
:1002D000429A42982196C11591E0D90719F743989F
:1002E0000E94C400429A4298D3CF289A00C028980E
:1002F0000895CF93C82F662311F02F9A01C02F982D
:100300002E98549A559A569A579A5F985E985D9887
:100310005C98CC230CF45F9AC6FD5E9AC5FD5D9A8D
:10032000C4FD5C9A0E9475015F985E985D985C9828
:10033000C3FD5F9AC2FD5E9AC1FD5D9AC0FD5C9AE5
:100340000E9475015C9A5D9A5E9A5F9ACF910895BA
:10035000882311F02F9A01C02F982E9A54985598FF
:1003600056985798289A00C04C9902C080E001C066
:1003700080E14D9980624E9980644F9980682898F9
:1003800000C0289A00C04C9981604D9982604E99B6
:1003900084604F9988602898089580E00E94A801A1
:1003A0008823DCF300C080E00E94A8010895CF9369
:1003B000C82F0E94CD0160E08C2F0E947901CF915F
:1003C0000895611104C080580E94D7010895805497
:1003D0000E94D701089581E00E94D7010895CF932C
:1003E000C82F0E94CD01CA3049F4803410F480E453
:1003F00001C080E080580E94D70113C0803129F4E9
:1004000060E080EC0E94790106C0803521F460E054
:1004100080E80E9479010E94CD0161E08C2F0E944A
:100420007901CF910895CF93DF93EC0189918823CF
:1004300029F00E94EF0189918111FBCFDF91CF91CB
:1004400008951F93CF93DF93182F279A269A209A07
:10045000549A559A569A579AE0EAFFE03197F1F785
:100460005D9A5C9A0E947501E0EEF4E03197F1F735
:100470000E947501C0E1D0E0FE013197F1F70E94C2
:100480007501FE013197F1F75C980E947501219783
:10049000F1F788E20E94D70188E00E94D7010E940C
:1004A000EB0186E00E94D701812F0E94D701DF91E6
:0A04B000CF911F910895F894FFCF3B
:0E04BA00636972636C65207465737420420080
:00000001FF
