:100000000C9474000C9491000C9491000C94910049
:100010000C9491000C9491000C9491000C9491001C
:100020000C9491000C9491000C9491000C9491000C
:100030000C9491000C9491000C9491000C949100FC
:100040000C9491000C9491000C9491000C949100EC
:100050000C9491000C9491000C9491000C949100DC
:100060000C9491000C9491009201B604D907FB0AFC
:100070001C0E3A1155146E17821A931D9F20A62349
:10008000A826A329992C872F6E324D352438F23AB1
:10009000B83D73402543CD456948FB4A814DFB4F30
:1000A0006852C9541D5764599C5BC75DE35FF0619A
:1000B000EE63DD65BC678B694A6BF86C966E2270E7
:1000C0009D7107735F74A575D876FA770979057AFB
:1000D000EE7AC57B887C397DD57D5F7ED57E377F86
:1000E000867FC17FE97FFD7F11241FBECFEFD8E05F
:1000F000DEBFCDBF11E0A0E0B1E0E4E6F5E002C074
:1001000005900D92AE30B107D9F723E0AEE0B1E033
:1001100001C01D92AA31B207E1F70E9458010C9468
:10012000B0020C94000086FF0FC0E82FF0E0E095CD
:10013000F095EF73FF27EE0FFF1FE859FF4F459132
:100140005491242F352F0BC0E82FEF73F0E0EE0F02
:10015000FF1FE859FF4F45915491242F352F8823D5
:100160001CF4319521953109822F932F0895805CDD
:100170000E94930008952A982C982D9898E088233F
:1001800014F42B9A01C02B982D9A2D98880F91501A
:10019000B1F72A9A08952A982C9A2D9898E08823E6
:1001A00014F42B9A01C02B982D9A2D98880F9150FA
:1001B000B1F72A9A0895CF93C62F80680E94BB009A
:1001C0008C2F80640E94BB00CF91089588EF91E04E
:1001D000E2E2F1E0DF019C011D9221503040E1F7A5
:1001E00008950F931F93CF93DF9360E080E00E9408
:1001F000DB00C2E2D1E00AE113E089910E94CB006A
:10020000C017D107D1F760E080E00E94DB00DF91EA
:10021000CF911F910F9108950E94E6000E94F10076
:10022000089584B18E6384B987EA91E60197F1F766
:1002300000C000002A98299887EA91E60197F1F713
:1002400000C00000299A2A9A81E20E94BB0089ED31
:100250000E94BB0084E00E94BB0083E10E94BB00BF
:1002600080E20E94BB008CE00E94BB000E940C0157
:1002700008958435E0F46033D0F4962F96959695E2
:100280009695E82FF0E024E5929FE00DF11D1124F2
:10029000EE5DFE4F677081E090E09C0102C0220F8E
:1002A000331F6A95E2F7B9018081682B6083089556
:1002B0000E9411018CE087B90E944E020E94180230
:1002C00087EA91E60197F1F700C0000060E080E066
:1002D0000E940E0280E091E00E944002C12CD12CCD
:1002E00006E616E00F2EF8E1BF2EF02D0E940C015D
:1002F000429A42980E94F100429A4298439AE6013B
:100300008C2F0E9493007C018C2F0E94B700B801B3
:100310000E9488022B2D261BC701B8010E9488026B
:10032000862F622F865D0E943901429A429821965B
:10033000C11591E0D90721F743980E94F100429A34
:100340004298D4CF289A00C028980895CF93C82FF8
:10035000662311F02F9A01C02F982E98549A559A1F
:10036000569A579A5F985E985D985C98CC230CF4E7
:100370005F9AC6FD5E9AC5FD5D9AC4FD5C9A0E94B7
:10038000A2015F985E985D985C98C3FD5F9AC2FD7C
:100390005E9AC1FD5D9AC0FD5C9A0E94A2015C9AC2
:1003A0005D9A5E9A5F9ACF910895882311F02F9AF3
:1003B00001C02F982E9A5498559856985798289A75
:1003C00000C04C9902C080E001C080E14D9980627C
:1003D0004E9980644F998068289800C0289A00C080
:1003E0004C9981604D9982604E9984604F998860E4
:1003F0002898089580E00E94D5018823DCF300C08E
:1004000080E00E94D5010895CF93C82F0E94FA0181
:1004100060E08C2F0E94A601CF910895611104C065
:1004200080580E940402089580540E940402089596
:1004300081E00E9404020895CF93C82F0E94FA0120
:10044000CA3049F4803410F480E401C080E0805860
:100450000E94040213C0803129F460E080EC0E9405
:10046000A60106C0803521F460E080E80E94A60164
:100470000E94FA0161E08C2F0E94A601CF9108959D
:10048000CF93DF93EC018991882329F00E941C020D
:1004900089918111FBCFDF91CF9108951F93CF9365
:1004A000DF93182F279A269A209A549A559A569A8B
:1004B000579AE0EAFFE03197F1F75D9A5C9A0E9463
:1004C000A201E0EEF4E03197F1F70E94A201C0E151
:1004D000D0E0FE013197F1F70E94A201FE013197B1
:1004E000F1F75C980E94A2012197F1F788E20E943F
:1004F000040288E00E9404020E94180286E00E9422
:100500000402812F0E940402DF91CF911F91089570
:1005100097FB072E16F4009407D077FD09D00E94B0
:100520009C0207FC05D03EF4909581959F4F08955D
:10053000709561957F4F0895AA1BBB1B51E107C0C1
:10054000AA1FBB1FA617B70710F0A61BB70B881F63
:10055000991F5A95A9F780959095BC01CD010895F2
:04056000F894FFCF3D
:0E056400636972636C652074657374204100D6
:00000001FF
