:100000000C9443000C9460000C9460000C9460000D
:100010000C9460000C9460000C9460000C946000E0
:100020000C9460000C9460000C9460000C946000D0
:100030000C9460000C9460000C9460000C946000C0
:100040000C9460000C9460000C9460000C946000B0
:100050000C9460000C9460000C9460000C946000A0
:100060000C9460000C94600005A84CCDB2D44EB93D
:100070003836A9020C50B9918688083CA6AAAA2A4B
:10008000BE000000803F11241FBECFEFD8E0DEBFCE
:10009000CDBF11E0A0E0B1E0EAEBF8E002C00590CE
:1000A0000D92AE30B107D9F723E0AEE0B1E001C068
:1000B0001D92AA31B207E1F70E94FF000C945B0485
:1000C0000C9400002A982C982D9898E0882314F41A
:1000D0002B9A01C02B982D9A2D98880F9150B1F72B
:1000E0002A9A08952A982C9A2D9898E0882314F437
:1000F0002B9A01C02B982D9A2D98880F9150B1F70B
:100100002A9A0895CF93C62F80680E9462008C2F90
:1001100080640E946200CF91089588EF91E0E2E24E
:10012000F1E0DF019C011D9221503040E1F708957C
:100130000F931F93CF93DF9360E080E00E948200D3
:10014000C2E2D1E00AE113E089910E947200C01777
:10015000D107D1F760E080E00E948200DF91CF916B
:100160001F910F9108950E948D000E94980008959C
:1001700084B18E6384B987EA91E60197F1F700C0F4
:1001800000002A98299887EA91E60197F1F700C0C4
:100190000000299A2A9A81E20E94620089ED0E9459
:1001A000620084E00E94620083E10E94620080E2BB
:1001B0000E9462008CE00E9462000E94B3000895D9
:1001C0008435E0F46033D0F4962F96959695969505
:1001D000E82FF0E024E5929FE00DF11D1124EE5D83
:1001E000FE4F677081E090E09C0102C0220F331F38
:1001F0006A95E2F7B9018081682B608308950E94B7
:10020000B8008CE087B90E9419020E94E30187EAD6
:1002100091E60197F1F700C0000060E080E00E94E5
:10022000D90180E091E00E940B0200E010E00E9402
:10023000B300429A42980E949800429A4298439A88
:10024000E801BE0180E090E00E94E7022BED3FE074
:1002500049EC5CE30E94AE03862E972EA82EB92EA1
:100260000E9411046B017C01682D792D8A2D9B2D34
:100270000E94B80220E030E040EA51E40E94AE0360
:100280009B01AC0160E070E080EC91E40E945302BD
:100290000E94BB02B62E20E030E040EA51E4C701E4
:1002A000B6010E94AE0320E030E048E252E40E9432
:1002B00054020E94BB02862F6B2D0E94E000429ADE
:1002C00042982196C11591E0D90709F0BACF439819
:1002D0000E949800429A4298AACF289A00C0289873
:1002E0000895CF93C82F662311F02F9A01C02F983D
:1002F0002E98549A559A569A579A5F985E985D9898
:100300005C98CC230CF45F9AC6FD5E9AC5FD5D9A9D
:10031000C4FD5C9A0E946D015F985E985D985C9840
:10032000C3FD5F9AC2FD5E9AC1FD5D9AC0FD5C9AF5
:100330000E946D015C9A5D9A5E9A5F9ACF910895D2
:10034000882311F02F9A01C02F982E9A549855980F
:1003500056985798289A00C04C9902C080E001C076
:1003600080E14D9980624E9980644F998068289809
:1003700000C0289A00C04C9981604D9982604E99C6
:1003800084604F9988602898089580E00E94A001B9
:100390008823DCF300C080E00E94A0010895CF9381
:1003A000C82F0E94C50160E08C2F0E947101CF917F
:1003B0000895611104C080580E94CF0108958054AF
:1003C0000E94CF01089581E00E94CF010895CF934C
:1003D000C82F0E94C501CA3049F4803410F480E46B
:1003E00001C080E080580E94CF0113C0803129F401
:1003F00060E080EC0E94710106C0803521F460E06D
:1004000080E80E9471010E94C50161E08C2F0E946A
:100410007101CF910895CF93DF93EC0189918823E7
:1004200029F00E94E70189918111FBCFDF91CF91E3
:1004300008951F93CF93DF93182F279A269A209A17
:10044000549A559A569A579AE0EAFFE03197F1F795
:100450005D9A5C9A0E946D01E0EEF4E03197F1F74D
:100460000E946D01C0E1D0E0FE013197F1F70E94DA
:100470006D01FE013197F1F75C980E946D012197A3
:10048000F1F788E20E94CF0188E00E94CF010E942C
:10049000E30186E00E94CF01812F0E94CF01DF910E
:1004A000CF911F9108955058BB27AA270ED00BC19A
:1004B000D4D030F0D9D020F031F49F3F11F41EF4A5
:1004C000C9C00EF4E095E7FBBFC0E92F1ED180F351
:1004D000BA17620773078407950718F071F49EF541
:1004E00036C10EF4E0950B2EBA2FA02D0B01B901E9
:1004F00090010C01CA01A0011124FF27591B99F09A
:10050000593F50F4503E68F11A16F040A22F232FA5
:10051000342F4427585FF3CF469537952795A795F5
:10052000F0405395C9F77EF41F16BA0B620B730B9C
:10053000840BBAF09150A1F0FF0FBB1F661F771F0D
:10054000881FC2F70EC0BA0F621F731F841F48F4C2
:10055000879577956795B795F7959E3F08F0B3CF48
:100560009395880F08F09927EE0F97958795089532
:1005700083D0E395B9C0D1D088F09F5790F0B92FC0
:100580009927B751A0F0D1F0660F771F881F991FE8
:100590001AF0BA95C9F712C0B13081F0D8D0B1E0E5
:1005A0000895D5C0672F782F8827B85F39F0B93FF5
:1005B000CCF3869577956795B395D9F73EF49095EA
:1005C0008095709561957F4F8F4F9F4F0895E89468
:1005D00009C097FB3EF490958095709561957F4F8B
:1005E0008F4F9F4F9923A9F0F92F96E9BB27939539
:1005F000F695879577956795B795F111F8CFFAF449
:10060000BB0F11F460FF1BC06F5F7F4F8F4F9F4F79
:1006100016C0882311F096E911C0772321F09EE8D7
:10062000872F762F05C0662371F096E8862F70E03D
:1006300060E02AF09A95660F771F881FDAF7880F17
:100640009695879597F9089597F99F6780E870E0E8
:1006500060E008959FEF80EC089500240A94161638
:10066000170618060906089500240A9412161306A0
:10067000140605060895EECF50D0E8F3E894E0E0C4
:10068000BB279F57F0F02AED3FE049EC06C0EE0F84
:10069000BB0F661F771F881F28F0B23A62077307E7
:1006A000840728F0B25A620B730B840BE3959A957A
:1006B00072F7803830F49A95BB0F661F771F881F3A
:1006C000D2F79048B6C0092E0394000C11F4882389
:1006D00052F0BB0F40F4BF2B11F460FF04C06F5FFA
:1006E0007F4F8F4F9F4F0895EF93E0FF06C0A2EA20
:1006F0002AED3FE049EC5FEBE8DEE5DF0F90039485
:1007000001FC9058E8E6F0E0A0C057FD9058440F77
:10071000551F59F05F3F71F04795880F97FB991F60
:1007200061F09F3F79F0879508951216130614061D
:10073000551FF2CF4695F1DF08C0161617061806AA
:10074000991FF1CF86957105610508940895E89485
:10075000BB2766277727CB0197F908950BD0B3CF36
:100760007CDF28F081DF18F0952309F06DCF72CF80
:100770001124EECFCADFA0F3959FD1F3950F50E07F
:10078000551F629FF001729FBB27F00DB11D639F43
:10079000AA27F00DB11DAA1F649F6627B00DA11DE9
:1007A000661F829F2227B00DA11D621F739FB00D8F
:1007B000A11D621F839FA00D611D221F749F3327FF
:1007C000A00D611D231F849F600D211D822F762F98
:1007D0006A2F11249F5750408AF0E1F088234AF095
:1007E000EE0FFF1FBB1F661F771F881F91505040E1
:1007F000A9F79E3F510570F027CFAACF5F3FECF3DA
:10080000983EDCF3869577956795B795F795E795CC
:100810009F5FC1F7FE2B880F911D9695879597F9DD
:1008200008959F9329DF0F9007FCEE5F5DCF9F3FF8
:1008300031F0915020F4879577956795B795880F9B
:10084000911D9695879597F908959F938F937F9320
:100850006F93FF93EF939B01AC0180DFEF91FF91CA
:1008600005D02F913F914F915F9178CFDF93CF9338
:100870001F930F93FF92EF92DF927B018C0168949C
:1008800005C0DA2EEF0176DFFE01E894A5912591EF
:10089000359145915591AEF3EF0117DEFE019701B9
:1008A000A801DA9479F7DF90EF90FF900F911F91F4
:0A08B000CF91DF910895F894FFCF77
:0E08BA00636972636C6520746573742043007B
:00000001FF
