:100000000C9434000C943E000C943E000C943E0082
:100010000C943E000C943E000C943E000C943E0068
:100020000C943E000C943E000C943E000C943E0058
:100030000C943E000C943E000C943E000C943E0048
:100040000C943E000C943E000C943E000C943E0038
:100050000C943E000C943E000C943E000C943E0028
:100060000C943E000C943E0011241FBECFEFD8E04C
:10007000DEBFCDBF0E9443000C943F010C940000F2
:100080008CE087B908958CE087B9C12CD12C88E425
:10009000E82E82E4F82E429A20E030E040EA50E474
:1000A000C701B6010E948B006B017C01429820E0E1
:1000B00030E0A9010E946300811102C0439A01C08F
:1000C00043980000E8CF03D008F481E00895990F29
:1000D0000008550FAA0BE0E8FEEF16161706E80712
:1000E000F907C0F012161306E407F50798F0621B33
:1000F000730B840B950B39F40A2661F0232B242B08
:10010000252B21F408950A2609F4A140A6958FEF26
:10011000811D811D08950BD078C069D028F06ED064
:1001200018F0952309F05AC05FC01124A2C07ED0F8
:10013000A0F3959FD1F3950F50E0551F629FF001FA
:10014000729FBB27F00DB11D639FAA27F00DB11D53
:10015000AA1F649F6627B00DA11D661F829F2227DC
:10016000B00DA11D621F739FB00DA11D621F839F63
:10017000A00D611D221F749F3327A00D611D231F39
:10018000849F600D211D822F762F6A2F11249F5787
:1001900050408AF0E1F088234AF0EE0FFF1FBB1FAA
:1001A000661F771F881F91505040A9F79E3F510549
:1001B00070F014C05EC05F3FECF3983EDCF38695B0
:1001C00077956795B795F795E7959F5FC1F7FE2BF4
:1001D000880F911D9695879597F9089597F99F67D0
:1001E00080E870E060E008959FEF80EC08950024BF
:1001F0000A941616170618060906089500240A948C
:1002000012161306140605060895092E0394000C11
:1002100011F4882352F0BB0F40F4BF2B11F460FFA0
:1002200004C06F5F7F4F8F4F9F4F089557FD9058C9
:10023000440F551F59F05F3F71F04795880F97FBAA
:10024000991F61F09F3F79F0879508951216130664
:100250001406551FF2CF4695F1DF08C01616170693
:100260001806991FF1CF86957105610508940895C8
:10027000E894BB2766277727CB0197F90895F89470
:02028000FFCFAE
:00000001FF
